{
  "_format": "hh-sol-artifact-1",
  "contractName": "BikeCollectionFactory",
  "sourceName": "contracts/BikeCollectionFactory.sol",
  "abi": [
    {
      "anonymous": false,
      "inputs": [
        {
          "indexed": false,
          "internalType": "address",
          "name": "collectionAddr",
          "type": "address"
        },
        {
          "indexed": false,
          "internalType": "address",
          "name": "ownerAddr",
          "type": "address"
        },
        {
          "indexed": false,
          "internalType": "string",
          "name": "name",
          "type": "string"
        },
        {
          "indexed": false,
          "internalType": "string",
          "name": "symbol",
          "type": "string"
        }
      ],
      "name": "CollectionCreated",
      "type": "event"
    },
    {
      "inputs": [
        {
          "internalType": "string",
          "name": "name",
          "type": "string"
        },
        {
          "internalType": "string",
          "name": "symbol",
          "type": "string"
        },
        {
          "internalType": "address",
          "name": "owner",
          "type": "address"
        }
      ],
      "name": "createCollection",
      "outputs": [],
      "stateMutability": "nonpayable",
      "type": "function"
    }
  ],
  "bytecode": "0x608080604052346100165761341d908161001c8239f35b600080fdfe6040608081526004908136101561001557600080fd5b600090813560e01c63d0ae65db1461002c57600080fd5b3461029f57606036600319011261029f5767ffffffffffffffff833581811161029b5761005c90369086016102a3565b60249283358381116102975761007590369088016102a3565b956044356001600160a01b038181169691879003610235578688528760205280848920541661025557835161308680820190828210898311176102435782916100db9161036284398781526100cc8882018a610321565b9060208183039101528c610321565b039089f08015610239571694853b1561023557835163f2fde38b60e01b81528381018890529088828481838b5af1801561022b57610206575b505060015491680100000000000000008310156101f55760018301806001558310156101e45750506101de9260807f5fead977881b23a0dbf2f905699203f29cefea57a576d2d4f412523191258e849798936101d0937fb10e2d527612073b26eecdfd717e6a320cf44b4afac2b0732d9fcbe2b7fa0cf6016bffffffffffffffffffffffff60a01b908882825416179055888b528a60205287828c20918254161790558051978897885260208801528601526080850190610321565b908382036060850152610321565b0390a180f35b634e487b7160e01b88526032905286fd5b634e487b7160e01b88526041905286fd5b8198929811610219578352953880610114565b5060418792634e487b7160e01b835252fd5b85513d8b823e3d90fd5b8780fd5b84513d8a823e3d90fd5b634e487b7160e01b8b5260418652848bfd5b506018906020606494519362461bcd60e51b85528401528201527f416c726561647920686173206120636f6c6c656374696f6e00000000000000006044820152fd5b8580fd5b8380fd5b5080fd5b81601f820112156103065780359067ffffffffffffffff9283831161030b5760405193601f8401601f19908116603f011685019081118582101761030b576040528284526020838301011161030657816000926020809301838601378301015290565b600080fd5b634e487b7160e01b600052604160045260246000fd5b919082519283825260005b84811061034d575050826000602080949584010152601f8019910116010190565b60208183018101518483018201520161032c56fe608060405234620003635762003086803803806200001d8162000368565b9283398101604082820312620003635781516001600160401b0392908381116200036357826200004f9183016200038e565b906020928382015185811162000363576200006b92016200038e565b9281518181116200034d576000938454916001948584811c9416801562000342575b838510146200032e578190601f94858111620002db575b508390858311600114620002775788926200026b575b5050600019600383901b1c191690851b1785555b8551928311620002575783548481811c911680156200024c575b828210146200023857828111620001f0575b50809183116001146200018a57508394829394926200017e575b5050600019600383901b1c191690821b1790555b60078054336001600160a01b031982168117909255604051926001600160a01b03909116907f8be0079c531659141344cd1fd0a4f28419497f9722a3daafe3b4186f6b6457e09080a3612c859081620004018239f35b01519050388062000114565b90601f198316958486528286209286905b888210620001d85750508385969710620001be575b505050811b01905562000128565b015160001960f88460031b161c19169055388080620001b0565b8087859682949686015181550195019301906200019b565b8486528186208380860160051c8201928487106200022e575b0160051c019085905b82811062000222575050620000fa565b87815501859062000212565b9250819262000209565b634e487b7160e01b86526022600452602486fd5b90607f1690620000e8565b634e487b7160e01b85526041600452602485fd5b015190503880620000ba565b8880528489208894509190601f1984168a5b87828210620002c45750508411620002aa575b505050811b018555620000ce565b015160001960f88460031b161c191690553880806200029c565b8385015186558b9790950194938401930162000289565b9091508780528388208580850160051c82019286861062000324575b918991869594930160051c01915b82811062000315575050620000a4565b8a815585945089910162000305565b92508192620002f7565b634e487b7160e01b87526022600452602487fd5b93607f16936200008d565b634e487b7160e01b600052604160045260246000fd5b600080fd5b6040519190601f01601f191682016001600160401b038111838210176200034d57604052565b919080601f84011215620003635782516001600160401b0381116200034d57602090620003c4601f8201601f1916830162000368565b92818452828287010111620003635760005b818110620003ec57508260009394955001015290565b8581018301518482018401528201620003d656fe608080604052600436101561001357600080fd5b60003560e01c90816301ffc9a714611df65750806304fc586d14610fc657806305b51b9a14610cdc57806306fdde0314610c39578063081812fc14610c1b578063095ea7b314610aa157806323b872dd14610a7d57806342842e0e14610a4a5780636352211e14610a1a57806363e4ab331461085757806370a08231146107c0578063715018a6146107635780638da5cb5b1461073a578063930318891461070e57806395d89b411461062f578063a22cb4651461055d578063a2cdf7831461053f578063aafbbe031461033e578063b88d4fde146102b7578063c87b56dd14610230578063e985e9c5146101da5763f2fde38b1461011157600080fd5b346101d55760203660031901126101d55761012a611e8e565b6101326122b4565b6001600160a01b0390811690811561018157600754826001600160601b0360a01b821617600755167f8be0079c531659141344cd1fd0a4f28419497f9722a3daafe3b4186f6b6457e0600080a3005b60405162461bcd60e51b815260206004820152602660248201527f4f776e61626c653a206e6577206f776e657220697320746865207a65726f206160448201526564647265737360d01b6064820152608490fd5b600080fd5b346101d55760403660031901126101d5576101f3611e8e565b6101fb611ea4565b9060018060a01b03809116600052600560205260406000209116600052602052602060ff604060002054166040519015158152f35b346101d55760203660031901126101d557600435600081815260026020526040902054610267906001600160a01b031615156125c7565b60005260066020526102b3610289610290604060002060405192838092612119565b0382611fa4565b600060405161029e81611f53565b52604051918291602083526020830190611edd565b0390f35b346101d55760803660031901126101d5576102d0611e8e565b6102d8611ea4565b90606435906044356001600160401b0383116101d557366023840112156101d55761033c93610314610337943690602481600401359101611fe0565b926103276103228433612990565b612677565b6103328383836126d9565b612bc4565b61296c565b005b346101d5576020806003193601126101d5576040519060043561036083611f37565b6000835260609283838201528360408201528380820152608081016000905260a08101600090528360c082015260e001600090526103b381600052600260205260018060a01b0360406000205416151590565b6103bc906120d8565b600052600a8152604060002090604051926103d684611f37565b82548452604051806103eb8160018701612119565b036103f69082611fa4565b848301908152604051938461040e8160028401612119565b036104199086611fa4565b60408681019586525191826104318160038501612119565b0361043c9084611fa4565b83870192835261ffff80600484015416936080890194855260058401549260a08a01938452604051948580600683019061047591612119565b036104809087611fa4565b60c08b019586526007015460ff169760e08b019861049e908a61203e565b6040519a818c5251908b01525197610100988960408c01526101208b016104c491611edd565b905190601f1997888c830301908c01526104dd91611edd565b905190868a82030160808b01526104f391611edd565b93511660a08801525160c087015251918582030160e086015261051591611edd565b905160058110156105295783928301520390f35b634e487b7160e01b600052602160045260246000fd5b346101d55760003660031901126101d5576020600954604051908152f35b346101d55760403660031901126101d557610576611e8e565b602435908115158092036101d5576001600160a01b0316903382146105ea57336000526005602052604060002082600052602052604060002060ff1981541660ff83161790556040519081527f17307eab39ab6107e8899845ad3d59bd9653f200f220920489ca2b5937696c3160203392a3005b60405162461bcd60e51b815260206004820152601960248201527f4552433732313a20617070726f766520746f2063616c6c6572000000000000006044820152606490fd5b346101d55760003660031901126101d557604051600060018054906106538261204a565b808552918181169081156106e7575060011461068e575b6102b38461067a81860382611fa4565b604051918291602083526020830190611edd565b600081815292507fb10e2d527612073b26eecdfd717e6a320cf44b4afac2b0732d9fcbe2b7fa0cf65b8284106106cf57505050810160200161067a8261066a565b805460208587018101919091529093019281016106b7565b60ff191660208087019190915292151560051b8501909201925061067a915083905061066a565b346101d55760203660031901126101d557600435600052600b6020526020604060002054604051908152f35b346101d55760003660031901126101d5576007546040516001600160a01b039091168152602090f35b346101d55760003660031901126101d55761077c6122b4565b600780546001600160a01b031981169091556000906001600160a01b03167f8be0079c531659141344cd1fd0a4f28419497f9722a3daafe3b4186f6b6457e08280a3005b346101d55760203660031901126101d5576001600160a01b036107e1611e8e565b1680156108005760005260036020526020604060002054604051908152f35b60405162461bcd60e51b815260206004820152602960248201527f4552433732313a2061646472657373207a65726f206973206e6f7420612076616044820152683634b21037bbb732b960b91b6064820152608490fd5b346101d55760803660031901126101d557610870611e8e565b610878611ea4565b906044359060643561ffff81168091036101d5576108946122b4565b82600052600b9360209285845260406000205483116109e15760005b8381106108f4577f65659fbf3bab178ce96dcb4ea95ba3900cae36f9426e9920b7940995f62b06bf604087878a8260005281528260002054908351928352820152a1005b60008681528786526040902080546000199291908381019081116109cb5761091b91612026565b929054600393841b1c928860005289885260406000209384549182156109b5576109b095846109ab956103379501926109548484612026565b81939154921b1b191690555580600052600a89526007604060002001600160ff198254161790556040519061098882611f53565b600082526109996103228233612990565b6109a48189896126d9565b8787612bc4565b612017565b6108b0565b634e487b7160e01b600052603160045260246000fd5b634e487b7160e01b600052601160045260246000fd5b60405162461bcd60e51b815260048101859052601160248201527020b6b7bab73a103a37b7903434b3b432b960791b6044820152606490fd5b346101d55760203660031901126101d5576020610a38600435612613565b6040516001600160a01b039091168152f35b346101d55761033c610337610a5e36611f02565b9060405192610a6c84611f53565b600084526103276103228433612990565b346101d55761033c610a8e36611f02565b91610a9c6103228433612990565b6126d9565b346101d55760403660031901126101d557610aba611e8e565b602435906001600160a01b038080610ad185612613565b16921691808314610bcc57803314908115610ba7575b5015610b3c57600083815260046020526040902080546001600160a01b03191683179055610b1483612613565b167f8c5be1e5ebec7d5bd14f71427d1e84f3dd0314c0f7b2291e5b200ac8c7c3b925600080a4005b60405162461bcd60e51b815260206004820152603d60248201527f4552433732313a20617070726f76652063616c6c6572206973206e6f7420746f60448201527f6b656e206f776e6572206f7220617070726f76656420666f7220616c6c0000006064820152608490fd5b9050600052600560205260406000203360005260205260ff6040600020541684610ae7565b60405162461bcd60e51b815260206004820152602160248201527f4552433732313a20617070726f76616c20746f2063757272656e74206f776e656044820152603960f91b6064820152608490fd5b346101d55760203660031901126101d5576020610a38600435612639565b346101d55760003660031901126101d55760405160008054610c5a8161204a565b808452906001908181169081156106e75750600114610c83576102b38461067a81860382611fa4565b600080805292507f290decd9548b62a8d60345a988386fc84ba6bc95484008f6362f93160ef3e5635b828410610cc457505050810160200161067a8261066a565b80546020858701810191909152909301928101610cac565b346101d55760803660031901126101d557610cf5611e8e565b610cfd611ea4565b90604435606435926001600160401b03938481116101d557610d23903690600401611e61565b600084815260026020526040902054919591610d4e906001600160a01b031615156120d8565b6120d8565b610d588433612990565b15610f755783600052602095600a875260ff60076040600020015416906005821015610529576001809203610f42576040519088820189815284604084015284826060850137600060608685010152601f1992610dc760608286601f8a01168101036040810184520182611fa4565b5190206040518a8101908b82526000604082015260408152610de881611f6e565b51902014610f12576000878152600a8a5260409020426005820155600601948411610efc57610e2184610e1b875461204a565b87612084565b600091601f8511600114610e8d575092808061033c9a946103379a99989794600a97600094610e82575b50501b916000199060031b1c19161790555b83600052526007604060002001600260ff1982541617905560405192610a6c84611f53565b013592508c80610e4b565b849394169185600052896000209260005b818110610ee7575092600a9592859261033c9c966103379c9b9a999610610ecd575b505050811b019055610e5d565b0135600019600384901b60f8161c191690558a8080610ec0565b83830135855593860193918b01918b01610e9e565b634e487b7160e01b600052604160045260246000fd5b60405162461bcd60e51b8152600481018a90526008602482015267534e20656d70747960c01b6044820152606490fd5b60405162461bcd60e51b815260048101899052600b60248201526a4e6f74206f6e2073616c6560a81b6044820152606490fd5b60405162461bcd60e51b8152602060048201526024808201527f43616c6c6572206973206e6f742062696b65206f776e6572206f7220617070726044820152631bdd995960e21b6064820152608490fd5b346101d55760a03660031901126101d55760043561ffff811681036101d5576024356001600160401b0381116101d557611004903690600401611e61565b6044356001600160401b0381116101d557611023903690600401611e61565b6064356001600160401b0381116101d557611042903690600401611e61565b9290946084359061ffff821682036101d55761105c6122b4565b600160095401968760095560005b61ffff8a1681106110ab577f16562417569773b98bced45962ae792864e098bda92bda6b456185347e62eb6760408a61ffff8d8351928352166020820152a1005b6110b36122b4565b60089060018254018092556040516110ca81611f53565b600081523315611db3576000838152600260205260409020546111889161033791611101906001600160a01b031615155b156129fe565b600085815260026020526040902054611124906001600160a01b031615156110fb565b3360005260036020526040600020600181540190558460005260026020526040600020336001600160601b0360a01b825416179055843360007fddf252ad1be2c89b69c2b068fc378daa952ba7f163c4a11628f55a4df523b3ef8180a48433612aa4565b60405161119481611f37565b8281526111a2368b87611fe0565b60208201526111b2368989611fe0565b60408201526111c2368a86611fe0565b606082015261ffff86166080820152600060a08201526040516111e481611f53565b6000815260c0820152600060e082015282600052600a6020526040600020908051825560208101518051906001600160401b038211610efc57819061123982611230600188015461204a565b60018801612084565b602090601f8311600114611d4157600092611d36575b50508160011b916000199060031b1c19161760018301555b60408101518051906001600160401b038211610efc57819061129982611290600288015461204a565b60028801612084565b602090601f8311600114611cc457600092611cb9575b50508160011b916000199060031b1c19161760028301555b60608101518051906001600160401b038211610efc5781906112f9826112f0600388015461204a565b60038801612084565b602090601f8311600114611c4757600092611c3c575b50508160011b916000199060031b1c19161760038301555b6004820161ffff60808301511661ffff1982541617905560a0810151600583015560c08101518051906001600160401b038211610efc576113788261136f600687015461204a565b60068701612084565b602090601f8311600114611bc95760e093929160009183611bbe575b50508160011b916000199060031b1c19161760068401555b015160058110156105295760079060ff801983850154169116179101556113eb610d4983600052600260205260018060a01b0360406000205416151590565b81600052600a602052604060002061149960ff60076040519361140d85611f37565b80548552604051611425816102898160018601612119565b602086015260405161143e816102898160028601612119565b6040860152604051611457816102898160038601612119565b606086015261ffff6004820154166080860152600581015460a0860152604051611488816102898160068601612119565b60c086015201541660e0830161203e565b60208101516114a784612484565b9160408101519060608101519060e081015160058110156105295760ff6114ce9116612484565b60405190306114dc83611f6e565b602a83526040366020850137825115611ba85760306020840153825160011015611ba8576078602184015360295b60018111611b5f5750611b1b5761152089612484565b9161153261ffff608086015116612484565b9161154060a0860151612484565b9560e060c087015196015160058110156105295761155d906121af565b976040519a8b809b60208201607b60f81b905268113730b6b2911d101160b91b60218301528051602a819301916020019161159792611eba565b8b0190602a820161202360f01b905280519081602c840191602001916115bc92611eba565b61088b60f21b818301602c8101919091526f113232b9b1b934b83a34b7b7111d101160811b602e8201528351603e949093916115ff918591870190602001611eba565b01019061088b60f21b90820152691134b6b0b3b2911d101160b11b6040820152815190604a9282848301916020019161163792611eba565b61088b60f21b9101918201526901139ba30ba3ab9911d160b51b604c820152815160569290919061167090839085840190602001611eba565b01908101600b60fa1b9052605781017f2265787465726e616c5f6c696e6b223a2022687474703a2f2f62696b652d6f6e905260778101712d636861696e2e76657263656c2e6170702f60701b90528151906089928284830191602001916116d692611eba565b01908101602f60f81b9052825190608a938285830191602001916116f992611eba565b61088b60f21b9101928301526e2261747472696275746573223a205b60881b608c830152607b60f81b609b8301527f2274726169745f74797065223a20224275696c642079656172222c0000000000609c83015269113b30b63ab2911d101160b11b60b783018190528151909260c19261177b90839085840190602001611eba565b601160f91b9101918201819052611f4b60f21b60c28301819052607b60f81b60c48401527f2274726169745f74797065223a2022466972737420707572636861736520646160c5840152631d19488b60e21b60e58401527f22646973706c61795f74797065223a202264617465222c00000000000000000060e9840152680113b30b63ab2911d160bd1b61010084015285519195909286926101099285929061182c90839086840190602001611eba565b019182015261010b8101607b60f81b905261010c81017f2274726169745f74797065223a202253657269616c206e756d626572222c000090528361012a8201528451906101349582878301916020019161188592611eba565b0193840152610135830152607b60f81b61013783015272089cdd185d1d5cc88e880894dd185d1d5cc88b606a1b61013883015261014b8201528251610155939091906118d990839086840190602001611eba565b0191820152607d60f81b806101568301526101578201605d60f81b90526101588201520361013981018252610159016119129082611fa4565b61191b9061233e565b60405190602082017f646174613a6170706c69636174696f6e2f6a736f6e3b6261736536342c0000009052818151603d9281848401916020019161195e92611eba565b810103601d81018352016119729082611fa4565b6000838152600260205260409020546001600160a01b031615611abf578260005260066020526040600020908051906001600160401b038211610efc5781906119c5826119bf865461204a565b86612084565b602090601f8311600114611a5357600092611a48575b50508160011b916000199060031b1c19161790555b89600052600b60205260406000209182549268010000000000000000841015610efc5783611a26916001611a4396018155612026565b819291549060031b600019811b9283911b16911916179055612017565b61106a565b015190508e806119db565b9250836000526020600020906000935b601f1984168510611aa4576001945083601f19811610611a8b575b505050811b0190556119f0565b015160001960f88460031b161c191690558e8080611a7e565b81810151835560209485019460019093019290910190611a63565b60405162461bcd60e51b815260206004820152602e60248201527f45524337323155524953746f726167653a2055524920736574206f66206e6f6e60448201526d32bc34b9ba32b73a103a37b5b2b760911b6064820152608490fd5b606460405162461bcd60e51b815260206004820152602060248201527f537472696e67733a20686578206c656e67746820696e73756666696369656e746044820152fd5b906010600f82161015611ba8578351821015611ba8576f181899199a1a9b1b9c1cb0b131b232b360811b600f82161a8483016020015360041c9080156109cb576000190161150a565b634e487b7160e01b600052603260045260246000fd5b015190503880611394565b906006850160005260206000209160005b601f1985168110611c24575091839160019360e09695601f19811610611c0b575b505050811b0160068401556113ac565b015160001960f88460031b161c19169055388080611bfb565b91926020600181928685015181550194019201611bda565b015190508f8061130f565b9250600385016000526020600020906000935b601f1984168510611c9e576001945083601f19811610611c85575b505050811b016003830155611327565b015160001960f88460031b161c191690558f8080611c75565b81810151835560209485019460019093019290910190611c5a565b015190508f806112af565b9250600285016000526020600020906000935b601f1984168510611d1b576001945083601f19811610611d02575b505050811b0160028301556112c7565b015160001960f88460031b161c191690558f8080611cf2565b81810151835560209485019460019093019290910190611cd7565b015190508f8061124f565b9250600185016000526020600020906000935b601f1984168510611d98576001945083601f19811610611d7f575b505050811b016001830155611267565b015160001960f88460031b161c191690558f8080611d6f565b81810151835560209485019460019093019290910190611d54565b606460405162461bcd60e51b8152602080600483015260248201527f4552433732313a206d696e7420746f20746865207a65726f20616464726573736044820152fd5b346101d55760203660031901126101d5576004359063ffffffff60e01b82168092036101d5576020916380ac58cd60e01b8114908115611e50575b8115611e3f575b5015158152f35b6301ffc9a760e01b14905083611e38565b635b5e139f60e01b81149150611e31565b9181601f840112156101d5578235916001600160401b0383116101d557602083818601950101116101d557565b600435906001600160a01b03821682036101d557565b602435906001600160a01b03821682036101d557565b60005b838110611ecd5750506000910152565b8181015183820152602001611ebd565b90602091611ef681518092818552858086019101611eba565b601f01601f1916010190565b60609060031901126101d5576001600160a01b039060043582811681036101d5579160243590811681036101d5579060443590565b61010081019081106001600160401b03821117610efc57604052565b602081019081106001600160401b03821117610efc57604052565b606081019081106001600160401b03821117610efc57604052565b604081019081106001600160401b03821117610efc57604052565b90601f801991011681019081106001600160401b03821117610efc57604052565b6001600160401b038111610efc57601f01601f191660200190565b929192611fec82611fc5565b91611ffa6040519384611fa4565b8294818452818301116101d5578281602093846000960137010152565b60001981146109cb5760010190565b8054821015611ba85760005260206000200190600090565b60058210156105295752565b90600182811c9216801561207a575b602083101461206457565b634e487b7160e01b600052602260045260246000fd5b91607f1691612059565b90601f811161209257505050565b600091825260208220906020601f850160051c830194106120ce575b601f0160051c01915b8281106120c357505050565b8181556001016120b7565b90925082906120ae565b156120df57565b60405162461bcd60e51b8152602060048201526012602482015271109a5ad948191bd95cdb89dd08195e1a5cdd60721b6044820152606490fd5b906000929180549161212a8361204a565b91828252600193848116908160001461218c575060011461214c575b50505050565b90919394506000526020928360002092846000945b838610612178575050505001019038808080612146565b805485870183015294019385908201612161565b9294505050602093945060ff191683830152151560051b01019038808080612146565b6005811015610529578015612293576001811461226f5760028114612248576003811461221d576004146121fa576040516121e981611f89565b60018152602f60f81b602082015290565b60405161220681611f89565b600781526614dd19585b195960ca1b602082015290565b5060405161222a81611f89565b600e81526d4f7574206f66207365727669636560901b602082015290565b5060405161225581611f89565b600a815269496e207365727669636560b01b602082015290565b5060405161227c81611f89565b60078152664f6e2073616c6560c81b602082015290565b506040516122a081611f89565b600481526349646c6560e01b602082015290565b6007546001600160a01b031633036122c857565b606460405162461bcd60e51b815260206004820152602060248201527f4f776e61626c653a2063616c6c6572206973206e6f7420746865206f776e65726044820152fd5b9061231682611fc5565b6123236040519182611fa4565b8281528092612334601f1991611fc5565b0190602036910137565b8051156124705760405161235181611f6e565b604081527f4142434445464748494a4b4c4d4e4f505152535455565758595a61626364656660208201527f6768696a6b6c6d6e6f707172737475767778797a303132333435363738392b2f604082015281516002928382018092116109cb576003918290046001600160fe1b03811681036109cb576123d3908594951b61230c565b936020850193829183518401925b83811061241f575050505051068060011461240c57600214612401575090565b603d90600019015390565b50603d9081600019820153600119015390565b85600491979293949701918251600190603f9082828260121c16880101518453828282600c1c16880101518385015382828260061c16880101518885015316850101518782015301959291906123e1565b5060405161247d81611f53565b6000815290565b806000917a184f03e93ff9f4daa797ed6e38ed64bf6a1f010000000000000000808210156125b9575b506d04ee2d6d415b85acef8100000000808310156125aa575b50662386f26fc100008083101561259b575b506305f5e1008083101561258c575b506127108083101561257d575b50606482101561256d575b600a80921015612563575b60019081602161251b82870161230c565b95860101905b61252d575b5050505090565b600019019083906f181899199a1a9b1b9c1cb0b131b232b360811b8282061a83530491821561255e57919082612521565b612526565b916001019161250a565b91906064600291049101916124ff565b600491939204910191386124f4565b600891939204910191386124e7565b601091939204910191386124d8565b602091939204910191386124c6565b6040935081049150386124ad565b156125ce57565b60405162461bcd60e51b815260206004820152601860248201527f4552433732313a20696e76616c696420746f6b656e20494400000000000000006044820152606490fd5b6000908152600260205260409020546001600160a01b03166126368115156125c7565b90565b60008181526002602052604090205461265c906001600160a01b031615156125c7565b6000908152600460205260409020546001600160a01b031690565b1561267e57565b60405162461bcd60e51b815260206004820152602d60248201527f4552433732313a2063616c6c6572206973206e6f7420746f6b656e206f776e6560448201526c1c881bdc88185c1c1c9bdd9959609a1b6064820152608490fd5b92919060008281526020600a815260409560ff600788852001541660058110156128d557156128e957848352600a825260ff600788852001541660058110156128d5576001036128ce57848352600a8252600687842001875161275781612749868201948786528c830190612119565b03601f198101835282611fa4565b519020875183810190848252858a82015289815261277481611f6e565b51902014155b1561288a579584959661278f6127a996612613565b6001600160a01b0396918716958792909183168714612a4a565b1694851561283a577fddf252ad1be2c89b69c2b068fc378daa952ba7f163c4a11628f55a4df523b3ef9392916127eb8688936127e48b612613565b1614612a4a565b878452600483526002818520936001600160601b0360a01b94858154169055878652600381528286206000198154019055838652828620600181540190558986525283209182541617905580a4565b815162461bcd60e51b8152600481018490526024808201527f4552433732313a207472616e7366657220746f20746865207a65726f206164646044820152637265737360e01b6064820152608490fd5b865162461bcd60e51b815260048101839052601760248201527f43616c6c207472616e73666572466f72536572766963650000000000000000006044820152606490fd5b600161277a565b634e487b7160e01b84526021600452602484fd5b865162461bcd60e51b815260048101839052600960248201526849646c65206d6f646560b81b6044820152606490fd5b60809060208152603260208201527f4552433732313a207472616e7366657220746f206e6f6e20455243373231526560408201527131b2b4bb32b91034b6b83632b6b2b73a32b960711b60608201520190565b1561297357565b60405162461bcd60e51b81528061298c60048201612919565b0390fd5b906001600160a01b0380806129a484612613565b169316918383149384156129d7575b5083156129c1575b50505090565b6129cd91929350612639565b16143880806129bb565b909350600052600560205260406000208260005260205260ff6040600020541692386129b3565b15612a0557565b60405162461bcd60e51b815260206004820152601c60248201527f4552433732313a20746f6b656e20616c7265616479206d696e746564000000006044820152606490fd5b15612a5157565b60405162461bcd60e51b815260206004820152602560248201527f4552433732313a207472616e736665722066726f6d20696e636f72726563742060448201526437bbb732b960d91b6064820152608490fd5b9192600092909190803b15612bba57612af2946040518092630a85bd0160e11b9485835233600484015287602484015260448301526080606483015281878160209a8b966084830190611edd565b03926001600160a01b03165af1849181612b76575b50612b65575050503d600014612b5d573d612b2181611fc5565b90612b2f6040519283611fa4565b81528091833d92013e5b80519182612b5a5760405162461bcd60e51b81528061298c60048201612919565b01fd5b506060612b39565b6001600160e01b0319161492509050565b9091508581813d8311612bb3575b612b8e8183611fa4565b81010312612baf57516001600160e01b031981168103612baf579038612b07565b8480fd5b503d612b84565b5050915050600190565b9293600093909291803b15612c4457948491612c1e9660405180948193630a85bd0160e11b9788845233600485015260018060a01b0380921660248501526044840152608060648401528260209b8c976084830190611edd565b0393165af1849181612b765750612b65575050503d600014612b5d573d612b2181611fc5565b50505091505060019056fea264697066735822122087cd9c8f26c9ed040f437d47538c4c3acf9e29929ab4aa086e27e3a2937e87d464736f6c63430008110033a264697066735822122008bb2cca1219d4971d1bf2c22ee13af5e2d005dcaf0833ffbf39232f16203a2d64736f6c63430008110033",
  "linkReferences": {},
  "deployedLinkReferences": {}
}