{
  "_format": "hh-sol-artifact-1",
  "contractName": "BikeCollection",
  "sourceName": "contracts/BikeCollection.sol",
  "abi": [
    {
      "inputs": [
        {
          "internalType": "string",
          "name": "name",
          "type": "string"
        },
        {
          "internalType": "string",
          "name": "symbol",
          "type": "string"
        }
      ],
      "stateMutability": "nonpayable",
      "type": "constructor"
    },
    {
      "anonymous": false,
      "inputs": [
        {
          "indexed": true,
          "internalType": "address",
          "name": "owner",
          "type": "address"
        },
        {
          "indexed": true,
          "internalType": "address",
          "name": "approved",
          "type": "address"
        },
        {
          "indexed": true,
          "internalType": "uint256",
          "name": "tokenId",
          "type": "uint256"
        }
      ],
      "name": "Approval",
      "type": "event"
    },
    {
      "anonymous": false,
      "inputs": [
        {
          "indexed": true,
          "internalType": "address",
          "name": "owner",
          "type": "address"
        },
        {
          "indexed": true,
          "internalType": "address",
          "name": "operator",
          "type": "address"
        },
        {
          "indexed": false,
          "internalType": "bool",
          "name": "approved",
          "type": "bool"
        }
      ],
      "name": "ApprovalForAll",
      "type": "event"
    },
    {
      "anonymous": false,
      "inputs": [
        {
          "indexed": false,
          "internalType": "uint256",
          "name": "id",
          "type": "uint256"
        },
        {
          "indexed": false,
          "internalType": "uint16",
          "name": "amount",
          "type": "uint16"
        },
        {
          "components": [
            {
              "internalType": "uint256",
              "name": "id",
              "type": "uint256"
            },
            {
              "internalType": "string",
              "name": "name",
              "type": "string"
            },
            {
              "internalType": "string",
              "name": "model",
              "type": "string"
            },
            {
              "internalType": "string",
              "name": "description",
              "type": "string"
            },
            {
              "internalType": "string",
              "name": "image",
              "type": "string"
            },
            {
              "internalType": "uint16",
              "name": "buildYear",
              "type": "uint16"
            },
            {
              "internalType": "uint256",
              "name": "firstPurchaseDate",
              "type": "uint256"
            },
            {
              "internalType": "string",
              "name": "serialNumber",
              "type": "string"
            },
            {
              "internalType": "enum BikeCollection.Status",
              "name": "status",
              "type": "uint8"
            }
          ],
          "indexed": false,
          "internalType": "struct BikeCollection.Bike",
          "name": "template",
          "type": "tuple"
        }
      ],
      "name": "GroupCreated",
      "type": "event"
    },
    {
      "anonymous": false,
      "inputs": [
        {
          "indexed": false,
          "internalType": "uint256",
          "name": "id",
          "type": "uint256"
        },
        {
          "indexed": false,
          "internalType": "uint256",
          "name": "amount",
          "type": "uint256"
        }
      ],
      "name": "GroupUpdated",
      "type": "event"
    },
    {
      "anonymous": false,
      "inputs": [
        {
          "indexed": true,
          "internalType": "address",
          "name": "previousOwner",
          "type": "address"
        },
        {
          "indexed": true,
          "internalType": "address",
          "name": "newOwner",
          "type": "address"
        }
      ],
      "name": "OwnershipTransferred",
      "type": "event"
    },
    {
      "anonymous": false,
      "inputs": [
        {
          "indexed": true,
          "internalType": "address",
          "name": "from",
          "type": "address"
        },
        {
          "indexed": true,
          "internalType": "address",
          "name": "to",
          "type": "address"
        },
        {
          "indexed": true,
          "internalType": "uint256",
          "name": "tokenId",
          "type": "uint256"
        }
      ],
      "name": "Transfer",
      "type": "event"
    },
    {
      "inputs": [
        {
          "internalType": "address",
          "name": "to",
          "type": "address"
        },
        {
          "internalType": "uint256",
          "name": "tokenId",
          "type": "uint256"
        }
      ],
      "name": "approve",
      "outputs": [],
      "stateMutability": "nonpayable",
      "type": "function"
    },
    {
      "inputs": [
        {
          "internalType": "address",
          "name": "owner",
          "type": "address"
        }
      ],
      "name": "balanceOf",
      "outputs": [
        {
          "internalType": "uint256",
          "name": "",
          "type": "uint256"
        }
      ],
      "stateMutability": "view",
      "type": "function"
    },
    {
      "inputs": [
        {
          "internalType": "uint16",
          "name": "amount",
          "type": "uint16"
        },
        {
          "internalType": "string",
          "name": "name",
          "type": "string"
        },
        {
          "internalType": "string",
          "name": "model",
          "type": "string"
        },
        {
          "internalType": "string",
          "name": "description",
          "type": "string"
        },
        {
          "internalType": "string",
          "name": "image",
          "type": "string"
        },
        {
          "internalType": "uint16",
          "name": "buildYear",
          "type": "uint16"
        }
      ],
      "name": "batchMint",
      "outputs": [],
      "stateMutability": "nonpayable",
      "type": "function"
    },
    {
      "inputs": [
        {
          "internalType": "address",
          "name": "from",
          "type": "address"
        },
        {
          "internalType": "address",
          "name": "to",
          "type": "address"
        },
        {
          "internalType": "uint256",
          "name": "groupId",
          "type": "uint256"
        },
        {
          "internalType": "uint16",
          "name": "amount",
          "type": "uint16"
        }
      ],
      "name": "batchTransferForSale",
      "outputs": [],
      "stateMutability": "nonpayable",
      "type": "function"
    },
    {
      "inputs": [
        {
          "internalType": "uint256",
          "name": "tokenId",
          "type": "uint256"
        }
      ],
      "name": "getApproved",
      "outputs": [
        {
          "internalType": "address",
          "name": "",
          "type": "address"
        }
      ],
      "stateMutability": "view",
      "type": "function"
    },
    {
      "inputs": [
        {
          "internalType": "uint256",
          "name": "tokenId",
          "type": "uint256"
        }
      ],
      "name": "getBike",
      "outputs": [
        {
          "components": [
            {
              "internalType": "uint256",
              "name": "id",
              "type": "uint256"
            },
            {
              "internalType": "string",
              "name": "name",
              "type": "string"
            },
            {
              "internalType": "string",
              "name": "model",
              "type": "string"
            },
            {
              "internalType": "string",
              "name": "description",
              "type": "string"
            },
            {
              "internalType": "string",
              "name": "image",
              "type": "string"
            },
            {
              "internalType": "uint16",
              "name": "buildYear",
              "type": "uint16"
            },
            {
              "internalType": "uint256",
              "name": "firstPurchaseDate",
              "type": "uint256"
            },
            {
              "internalType": "string",
              "name": "serialNumber",
              "type": "string"
            },
            {
              "internalType": "enum BikeCollection.Status",
              "name": "status",
              "type": "uint8"
            }
          ],
          "internalType": "struct BikeCollection.Bike",
          "name": "",
          "type": "tuple"
        }
      ],
      "stateMutability": "view",
      "type": "function"
    },
    {
      "inputs": [
        {
          "internalType": "uint256",
          "name": "groupId",
          "type": "uint256"
        }
      ],
      "name": "getGroupAmount",
      "outputs": [
        {
          "internalType": "uint256",
          "name": "",
          "type": "uint256"
        }
      ],
      "stateMutability": "view",
      "type": "function"
    },
    {
      "inputs": [],
      "name": "getGroupsAmount",
      "outputs": [
        {
          "internalType": "uint256",
          "name": "",
          "type": "uint256"
        }
      ],
      "stateMutability": "view",
      "type": "function"
    },
    {
      "inputs": [
        {
          "internalType": "address",
          "name": "owner",
          "type": "address"
        },
        {
          "internalType": "address",
          "name": "operator",
          "type": "address"
        }
      ],
      "name": "isApprovedForAll",
      "outputs": [
        {
          "internalType": "bool",
          "name": "",
          "type": "bool"
        }
      ],
      "stateMutability": "view",
      "type": "function"
    },
    {
      "inputs": [],
      "name": "name",
      "outputs": [
        {
          "internalType": "string",
          "name": "",
          "type": "string"
        }
      ],
      "stateMutability": "view",
      "type": "function"
    },
    {
      "inputs": [],
      "name": "owner",
      "outputs": [
        {
          "internalType": "address",
          "name": "",
          "type": "address"
        }
      ],
      "stateMutability": "view",
      "type": "function"
    },
    {
      "inputs": [
        {
          "internalType": "uint256",
          "name": "tokenId",
          "type": "uint256"
        }
      ],
      "name": "ownerOf",
      "outputs": [
        {
          "internalType": "address",
          "name": "",
          "type": "address"
        }
      ],
      "stateMutability": "view",
      "type": "function"
    },
    {
      "inputs": [],
      "name": "renounceOwnership",
      "outputs": [],
      "stateMutability": "nonpayable",
      "type": "function"
    },
    {
      "inputs": [
        {
          "internalType": "address",
          "name": "from",
          "type": "address"
        },
        {
          "internalType": "address",
          "name": "to",
          "type": "address"
        },
        {
          "internalType": "uint256",
          "name": "tokenId",
          "type": "uint256"
        }
      ],
      "name": "safeTransferFrom",
      "outputs": [],
      "stateMutability": "nonpayable",
      "type": "function"
    },
    {
      "inputs": [
        {
          "internalType": "address",
          "name": "from",
          "type": "address"
        },
        {
          "internalType": "address",
          "name": "to",
          "type": "address"
        },
        {
          "internalType": "uint256",
          "name": "tokenId",
          "type": "uint256"
        },
        {
          "internalType": "bytes",
          "name": "data",
          "type": "bytes"
        }
      ],
      "name": "safeTransferFrom",
      "outputs": [],
      "stateMutability": "nonpayable",
      "type": "function"
    },
    {
      "inputs": [
        {
          "internalType": "address",
          "name": "operator",
          "type": "address"
        },
        {
          "internalType": "bool",
          "name": "approved",
          "type": "bool"
        }
      ],
      "name": "setApprovalForAll",
      "outputs": [],
      "stateMutability": "nonpayable",
      "type": "function"
    },
    {
      "inputs": [
        {
          "internalType": "uint256",
          "name": "tokenId",
          "type": "uint256"
        }
      ],
      "name": "setInService",
      "outputs": [],
      "stateMutability": "nonpayable",
      "type": "function"
    },
    {
      "inputs": [
        {
          "internalType": "uint256",
          "name": "tokenId",
          "type": "uint256"
        }
      ],
      "name": "setOutOfService",
      "outputs": [],
      "stateMutability": "nonpayable",
      "type": "function"
    },
    {
      "inputs": [
        {
          "internalType": "uint256",
          "name": "tokenId",
          "type": "uint256"
        }
      ],
      "name": "setStealed",
      "outputs": [],
      "stateMutability": "nonpayable",
      "type": "function"
    },
    {
      "inputs": [
        {
          "internalType": "bytes4",
          "name": "interfaceId",
          "type": "bytes4"
        }
      ],
      "name": "supportsInterface",
      "outputs": [
        {
          "internalType": "bool",
          "name": "",
          "type": "bool"
        }
      ],
      "stateMutability": "view",
      "type": "function"
    },
    {
      "inputs": [],
      "name": "symbol",
      "outputs": [
        {
          "internalType": "string",
          "name": "",
          "type": "string"
        }
      ],
      "stateMutability": "view",
      "type": "function"
    },
    {
      "inputs": [
        {
          "internalType": "uint256",
          "name": "index",
          "type": "uint256"
        }
      ],
      "name": "tokenByIndex",
      "outputs": [
        {
          "internalType": "uint256",
          "name": "",
          "type": "uint256"
        }
      ],
      "stateMutability": "view",
      "type": "function"
    },
    {
      "inputs": [
        {
          "internalType": "address",
          "name": "owner",
          "type": "address"
        },
        {
          "internalType": "uint256",
          "name": "index",
          "type": "uint256"
        }
      ],
      "name": "tokenOfOwnerByIndex",
      "outputs": [
        {
          "internalType": "uint256",
          "name": "",
          "type": "uint256"
        }
      ],
      "stateMutability": "view",
      "type": "function"
    },
    {
      "inputs": [
        {
          "internalType": "uint256",
          "name": "tokenId",
          "type": "uint256"
        }
      ],
      "name": "tokenURI",
      "outputs": [
        {
          "internalType": "string",
          "name": "",
          "type": "string"
        }
      ],
      "stateMutability": "view",
      "type": "function"
    },
    {
      "inputs": [],
      "name": "totalSupply",
      "outputs": [
        {
          "internalType": "uint256",
          "name": "",
          "type": "uint256"
        }
      ],
      "stateMutability": "view",
      "type": "function"
    },
    {
      "inputs": [
        {
          "internalType": "address",
          "name": "from",
          "type": "address"
        },
        {
          "internalType": "address",
          "name": "to",
          "type": "address"
        },
        {
          "internalType": "uint256",
          "name": "tokenId",
          "type": "uint256"
        },
        {
          "internalType": "string",
          "name": "serialNumber",
          "type": "string"
        },
        {
          "internalType": "uint256",
          "name": "firstPurchaseDate",
          "type": "uint256"
        }
      ],
      "name": "transferForService",
      "outputs": [],
      "stateMutability": "nonpayable",
      "type": "function"
    },
    {
      "inputs": [
        {
          "internalType": "address",
          "name": "from",
          "type": "address"
        },
        {
          "internalType": "address",
          "name": "to",
          "type": "address"
        },
        {
          "internalType": "uint256",
          "name": "tokenId",
          "type": "uint256"
        }
      ],
      "name": "transferFrom",
      "outputs": [],
      "stateMutability": "nonpayable",
      "type": "function"
    },
    {
      "inputs": [
        {
          "internalType": "address",
          "name": "newOwner",
          "type": "address"
        }
      ],
      "name": "transferOwnership",
      "outputs": [],
      "stateMutability": "nonpayable",
      "type": "function"
    }
  ],
  "bytecode": "0x60806040523462000363576200367e803803806200001d8162000368565b9283398101604082820312620003635781516001600160401b0392908381116200036357826200004f9183016200038e565b906020928382015185811162000363576200006b92016200038e565b9281518181116200034d576000938454916001948584811c9416801562000342575b838510146200032e578190601f94858111620002db575b508390858311600114620002775788926200026b575b5050600019600383901b1c191690851b1785555b8551928311620002575783548481811c911680156200024c575b828210146200023857828111620001f0575b50809183116001146200018a57508394829394926200017e575b5050600019600383901b1c191690821b1790555b600a8054336001600160a01b031982168117909255604051926001600160a01b03909116907f8be0079c531659141344cd1fd0a4f28419497f9722a3daafe3b4186f6b6457e09080a361327d9081620004018239f35b01519050388062000114565b90601f198316958486528286209286905b888210620001d85750508385969710620001be575b505050811b01905562000128565b015160001960f88460031b161c19169055388080620001b0565b8087859682949686015181550195019301906200019b565b8486528186208380860160051c8201928487106200022e575b0160051c019085905b82811062000222575050620000fa565b87815501859062000212565b9250819262000209565b634e487b7160e01b86526022600452602486fd5b90607f1690620000e8565b634e487b7160e01b85526041600452602485fd5b015190503880620000ba565b8880528489208894509190601f1984168a5b87828210620002c45750508411620002aa575b505050811b018555620000ce565b015160001960f88460031b161c191690553880806200029c565b8385015186558b9790950194938401930162000289565b9091508780528388208580850160051c82019286861062000324575b918991869594930160051c01915b82811062000315575050620000a4565b8a815585945089910162000305565b92508192620002f7565b634e487b7160e01b87526022600452602487fd5b93607f16936200008d565b634e487b7160e01b600052604160045260246000fd5b600080fd5b6040519190601f01601f191682016001600160401b038111838210176200034d57604052565b919080601f84011215620003635782516001600160401b0381116200034d57602090620003c4601f8201601f1916830162000368565b92818452828287010111620003635760005b818110620003ec57508260009394955001015290565b8581018301518482018401528201620003d656fe608080604052600436101561001357600080fd5b60003560e01c90816301ffc9a7146120855750806306fdde0314611fe257806307c6336e14611f29578063081812fc14611f0b578063095ea7b314611d9157806318160ddd14611d7357806323b872dd14611d4f57806324e7793814611c965780632f745c5914611be457806342842e0e14611bc25780634f6ccce714611b315780634f95481b146118a25780636352211e1461187257806363e4ab33146116ca57806370a082311461169f578063715018a6146116425780638da5cb5b1461161957806393031889146115ed57806394b3bcc91461152f57806395d89b41146114645780639632fc4a14610bca578063a22cb46514610af8578063a2cdf78314610ada578063aafbbe0314610981578063b88d4fde146108fa578063c87b56dd14610272578063e985e9c51461021c5763f2fde38b1461015357600080fd5b346102175760203660031901126102175761016c612152565b6101746126ec565b6001600160a01b039081169081156101c357600a54826001600160601b0360a01b821617600a55167f8be0079c531659141344cd1fd0a4f28419497f9722a3daafe3b4186f6b6457e0600080a3005b60405162461bcd60e51b815260206004820152602660248201527f4f776e61626c653a206e6577206f776e657220697320746865207a65726f206160448201526564647265737360d01b6064820152608490fd5b600080fd5b3461021757604036600319011261021757610235612152565b61023d612168565b9060018060a01b03809116600052600560205260406000209116600052602052602060ff604060002054166040519015158152f35b34610217576020366003190112610217576004356000908152600260205260409020546102a9906001600160a01b03161515612a76565b600435600052600d60205260406000206040516102c581612281565b81548152604051916102e5836102de8160018501612551565b03846122ee565b60208201928352604051610307816103008160028601612551565b03826122ee565b604083015260405191610321836102de8160038601612551565b60608101928352604051906103448261033d8160048701612551565b03836122ee565b6080810191825261ffff6005840154169360a0820194855260068401549560c083019687526103a060ff60086040519761038c896103858160078501612551565b038a6122ee565b60e0870198895201541661010085016123e4565b51916103ad6004356128bc565b9151935194610100820151600581101561082d5760ff6103cd91166128bc565b913095604051966103dd886122b8565b602a885260403660208a01378751156108e457603060208901538751600110156108e4576078602189015360295b6001811161088757506108435761010061043e61043761ffff61042f6004356128bc565b9c51166128bc565b9b516128bc565b935192015195600587101561082d576108299a6107c29a6107bd996104656101599a6125e7565b976040519c8d9a602a61049f8d607b60f81b998a602083015268113730b6b2911d101160b91b60218301526020815194859301910161210a565b8c0161202360f01b602a8201526104c0825180936020602c8501910161210a565b019661088b60f21b9788602c8201526f113232b9b1b934b83a34b7b7111d101160811b602e8201526104fc825180936020603e8501910161210a565b0187603e820152691134b6b0b3b2911d101160b11b604082015261052a825180936020604a8501910161210a565b0186604a8201526901139ba30ba3ab9911d160b51b604c82015261055882518093602060568501910161210a565b01600b60fa1b60568201527f2265787465726e616c5f6c696e6b223a2022687474703a2f2f62696b652d6f6e6057820152712d636861696e2e76657263656c2e6170702f60701b60778201526105b882518093602060898501910161210a565b01602f60f81b60898201526105d7825180936020608a8501910161210a565b0192608a8401526e2261747472696275746573223a205b60881b608c84015281609b8401527f2274726169745f74797065223a20224275696c642079656172222c0000000000609c84015269113b30b63ab2911d101160b11b928360b782015261064b82518093602060c18501910161210a565b01601160f91b80958160c1840152611f4b60f21b838160c2819601528560c48201527f2274726169745f74797065223a2022466972737420707572636861736520646160c5820152631d19488b60e21b60e58201527f22646973706c61795f74797065223a202264617465222c00000000000000000060e9820152680113b30b63ab2911d160bd1b6101008201528251906106f082610109956020878501910161210a565b01918201528361010b8201527f2274726169745f74797065223a202253657269616c206e756d626572222c000061010c8201528461012a820152855190610741826101349860208a8501910161210a565b019485015261013584015261013783015272089cdd185d1d5cc88e880894dd185d1d5cc88b606a1b61013883015261014b82015282519061078c82610155956020878501910161210a565b0191820152607d60f81b80610156830152605d60f81b610157830152610158820152036101398101845201826122ee565b612776565b610815603d60405180937f646174613a6170706c69636174696f6e2f6a736f6e3b6261736536342c0000006020830152610805815180926020868601910161210a565b810103601d8101845201826122ee565b60405191829160208352602083019061212d565b0390f35b634e487b7160e01b600052602160045260246000fd5b606460405162461bcd60e51b815260206004820152602060248201527f537472696e67733a20686578206c656e67746820696e73756666696369656e746044820152fd5b90600f811660108110156108e45789518310156108e4576f181899199a1a9b1b9c1cb0b131b232b360811b901a8983016020015360041c9080156108ce576000190161040b565b634e487b7160e01b600052601160045260246000fd5b634e487b7160e01b600052603260045260246000fd5b3461021757608036600319011261021757610913612152565b61091b612168565b90606435906044356001600160401b03831161021757366023840112156102175761097f9361095761097a94369060248160040135910161232a565b9261096a6109658433612f68565b612b26565b610975838383612b88565b61319c565b612f44565b005b34610217576020806003193601126102175760043590610ac66040516109a681612281565b6000815260609384848301528460408301528480830152846080830152600060a0830152600060c08301528460e0830152600061010080930152610a07610a0282600052600260205260018060a01b0360406000205416151590565b61247e565b600052600d835260ff6008604060002060405196610a2488612281565b81548852604051610a3c816103008160018701612551565b87890152604051610a54816103008160028701612551565b604089015260405190610a6e8261033d8160038701612551565b880152604051610a85816103008160048601612551565b608088015261ffff60058201541660a0880152600681015460c0880152604051610ab6816103008160078601612551565b60e08801520154169084016123e4565b6108296040519282849384528301906121e0565b34610217576000366003190112610217576020600c54604051908152f35b3461021757604036600319011261021757610b11612152565b60243590811515809203610217576001600160a01b031690338214610b8557336000526005602052604060002082600052602052604060002060ff1981541660ff83161790556040519081527f17307eab39ab6107e8899845ad3d59bd9653f200f220920489ca2b5937696c3160203392a3005b60405162461bcd60e51b815260206004820152601960248201527f4552433732313a20617070726f766520746f2063616c6c6572000000000000006044820152606490fd5b346102175760c03660031901126102175760043561ffff81168103610217576024356001600160401b03811161021757610c089036906004016121b3565b91906044356001600160401b03811161021757610c299036906004016121b3565b93906064356001600160401b03811161021757610c4a9036906004016121b3565b6084356001600160401b03811161021757610c699036906004016121b3565b93909761ffff60a4351660a4350361021757610c836126ec565b6001600c54019687600c5560003315905b61ffff8b168110610d71575050937f1809cb96e79ef65b30d81b4f416dbdcde9685b0503bd7340fe48f104558fcf4c9993610cfd610d6c989794610d0994610cf1610d15996040519b610ce68d612281565b60008d52369161232a565b60208b0152369161232a565b6040880152369161232a565b6060850152369161232a565b608082015261ffff60a4351660a0820152600060c0820152604051610d398161229d565b6000815260e0820152600061010082015261ffff60405194859485521660208401526060604084015260608301906121e0565b0390a1005b610d796126ec565b600b90600182540180925560405192610d918461229d565b6000845261142157600082815260026020526040902054610dbe906001600160a01b031615155b15612fd6565b600854826000526009602052604060002055610dd9826123bf565b610e8a61097a600094610deb336129ff565b33600052600660205260406000208160005260205285604060002055856000526007602052604060002055610e38610db886600052600260205260018060a01b0360406000205416151590565b3360005260036020526040600020600181540190558460005260026020526040600020336001600160601b0360a01b825416179055843360006000805160206132288339815191528180a4843361307c565b604051610ed58e610e9a83612281565b848352610ea8368e8961232a565b6020840152610eb836898b61232a565b6040840152610ec8368b8d61232a565b60608401528b369161232a565b608082015261ffff60a4351660a0820152600060c0820152604051610ef98161229d565b6000815260e0820152600061010082015282600052600d6020526040600020908051825560208101518051906001600160401b038211611198578190610f4f82610f4660018801546123f0565b6001880161242a565b602090601f83116001146113af576000926113a4575b50508160011b916000199060031b1c19161760018301555b60408101518051906001600160401b038211611198578190610faf82610fa660028801546123f0565b6002880161242a565b602090601f831160011461133257600092611327575b50508160011b916000199060031b1c19161760028301555b60608101518051906001600160401b03821161119857819061100f8261100660038801546123f0565b6003880161242a565b602090601f83116001146112b5576000926112aa575b50508160011b916000199060031b1c19161760038301555b60808101518051906001600160401b03821161119857819061106f8261106660048801546123f0565b6004880161242a565b602090601f83116001146112385760009261122d575b50508160011b916000199060031b1c19161760048301555b6005820161ffff60a08301511661ffff1982541617905560c0810151600683015560e08101518051906001600160401b038211611198576110ee826110e560078701546123f0565b6007870161242a565b602090601f83116001146111b957610100939291600091836111ae575b50508160011b916000199060031b1c19161760078401555b015190600582101561082d576008019060ff801983541691161790558a600052600e602052604060002091825490600160401b821015611198576111738261119395600161118e950181556123a7565b90919082549060031b600019811b9283911b16911916179055565b612361565b610c94565b634e487b7160e01b600052604160045260246000fd5b01519050388061110b565b906007850160005260206000209160005b601f198516811061121557509183916001936101009695601f198116106111fc575b505050811b016007840155611123565b015160001960f88460031b161c191690553880806111ec565b919260206001819286850151815501940192016111ca565b015190503880611085565b9250600485016000526020600020906000935b601f198416851061128f576001945083601f19811610611276575b505050811b01600483015561109d565b015160001960f88460031b161c19169055388080611266565b8181015183556020948501946001909301929091019061124b565b015190503880611025565b9250600385016000526020600020906000935b601f198416851061130c576001945083601f198116106112f3575b505050811b01600383015561103d565b015160001960f88460031b161c191690553880806112e3565b818101518355602094850194600190930192909101906112c8565b015190503880610fc5565b9250600285016000526020600020906000935b601f1984168510611389576001945083601f19811610611370575b505050811b016002830155610fdd565b015160001960f88460031b161c19169055388080611360565b81810151835560209485019460019093019290910190611345565b015190503880610f65565b9250600185016000526020600020906000935b601f1984168510611406576001945083601f198116106113ed575b505050811b016001830155610f7d565b015160001960f88460031b161c191690553880806113dd565b818101518355602094850194600190930192909101906113c2565b606460405162461bcd60e51b8152602080600483015260248201527f4552433732313a206d696e7420746f20746865207a65726f20616464726573736044820152fd5b346102175760003660031901126102175760405160006001805490611488826123f0565b8085529181811690811561150857506001146114af575b61082984610815818603826122ee565b600081815292507fb10e2d527612073b26eecdfd717e6a320cf44b4afac2b0732d9fcbe2b7fa0cf65b8284106114f05750505081016020016108158261149f565b805460208587018101919091529093019281016114d8565b60ff191660208087019190915292151560051b85019092019250610815915083905061149f565b3461021757602036600319011261021757600435600081815260026020526040902054611566906001600160a01b0316151561247e565b6115786115738233612f68565b6124bf565b80600052600d60205260ff60086040600020015416600581101561082d571515806115c5575b6115a790612517565b6000908152600d60205260409020600801805460ff19166002179055005b5080600052600d60205260ff60086040600020015416600581101561082d576001141561159e565b3461021757602036600319011261021757600435600052600e6020526020604060002054604051908152f35b3461021757600036600319011261021757600a546040516001600160a01b039091168152602090f35b346102175760003660031901126102175761165b6126ec565b600a80546001600160a01b031981169091556000906001600160a01b03167f8be0079c531659141344cd1fd0a4f28419497f9722a3daafe3b4186f6b6457e08280a3005b346102175760203660031901126102175760206116c26116bd612152565b6129ff565b604051908152f35b34610217576080366003190112610217576116e3612152565b6116eb612168565b906044359060643561ffff8116809103610217576117076126ec565b82600052600e9360209285845260406000205483116118395760005b838110611767577f65659fbf3bab178ce96dcb4ea95ba3900cae36f9426e9920b7940995f62b06bf604087878a8260005281528260002054908351928352820152a1005b60008681528786526040902080546000199291908381019081116108ce5761178e916123a7565b929054600393841b1c928860005289885260406000209384549182156118235761181e958461118e9561097a9501926117c784846123a7565b81939154921b1b191690555580600052600d89526008604060002001600160ff19825416179055604051906117fb8261229d565b6000825261180c6109658233612f68565b611817818989612b88565b878761319c565b611723565b634e487b7160e01b600052603160045260246000fd5b60405162461bcd60e51b815260048101859052601160248201527020b6b7bab73a103a37b7903434b3b432b960791b6044820152606490fd5b34610217576020366003190112610217576020611890600435612ac2565b6040516001600160a01b039091168152f35b346102175760a0366003190112610217576118bb612152565b6118c3612168565b90604435606435926001600160401b0393848111610217576118e99036906004016121b3565b60008481526002602052604090205491959161190f906001600160a01b0316151561247e565b61191c6115738533612f68565b83600052602095600d875260ff6008604060002001541690600582101561082d576001809203611afe576040519088820189815284604084015284826060850137600060608685010152601f199261198660608286601f8a011681010360408101845201826122ee565b5190206040518a8101908b825260006040820152604081526119a7816122b8565b51902014611ace576000878152600d8a52604090206084356006820155600701948411611198576119e2846119dc87546123f0565b8761242a565b600091601f8511600114611a5f575092808061097f9a9461097a9a99989794600d97600094611a54575b50501b916000199060031b1c19161790555b83600052526008604060002001600260ff1982541617905560405192611a438461229d565b6000845261096a6109658433612f68565b013592508c80611a0c565b849394169185600052896000209260005b818110611ab9575092600d9592859261097f9c9661097a9c9b9a999610611a9f575b505050811b019055611a1e565b0135600019600384901b60f8161c191690558a8080611a92565b83830135855593860193918b01918b01611a70565b60405162461bcd60e51b8152600481018a90526008602482015267534e20656d70747960c01b6044820152606490fd5b60405162461bcd60e51b815260048101899052600b60248201526a4e6f74206f6e2073616c6560a81b6044820152606490fd5b3461021757602036600319011261021757600435600854811015611b6857611b5a602091612370565b90546040519160031b1c8152f35b60405162461bcd60e51b815260206004820152602c60248201527f455243373231456e756d657261626c653a20676c6f62616c20696e646578206f60448201526b7574206f6620626f756e647360a01b6064820152608490fd5b346102175761097f61097a611bd63661217e565b9060405192611a438461229d565b3461021757604036600319011261021757611bfd612152565b60243590611c0a816129ff565b821015611c3d5760018060a01b031660005260066020526040600020906000526020526020604060002054604051908152f35b60405162461bcd60e51b815260206004820152602b60248201527f455243373231456e756d657261626c653a206f776e657220696e646578206f7560448201526a74206f6620626f756e647360a81b6064820152608490fd5b3461021757602036600319011261021757600435600081815260026020526040902054611ccd906001600160a01b0316151561247e565b611cda6115738233612f68565b80600052600d60205260ff60086040600020015416600581101561082d57151580611d27575b611d0990612517565b6000908152600d60205260409020600801805460ff19166004179055005b5080600052600d60205260ff60086040600020015416600581101561082d5760011415611d00565b346102175761097f611d603661217e565b91611d6e6109658433612f68565b612b88565b34610217576000366003190112610217576020600854604051908152f35b3461021757604036600319011261021757611daa612152565b602435906001600160a01b038080611dc185612ac2565b16921691808314611ebc57803314908115611e97575b5015611e2c57600083815260046020526040902080546001600160a01b03191683179055611e0483612ac2565b167f8c5be1e5ebec7d5bd14f71427d1e84f3dd0314c0f7b2291e5b200ac8c7c3b925600080a4005b60405162461bcd60e51b815260206004820152603d60248201527f4552433732313a20617070726f76652063616c6c6572206973206e6f7420746f60448201527f6b656e206f776e6572206f7220617070726f76656420666f7220616c6c0000006064820152608490fd5b9050600052600560205260406000203360005260205260ff6040600020541684611dd7565b60405162461bcd60e51b815260206004820152602160248201527f4552433732313a20617070726f76616c20746f2063757272656e74206f776e656044820152603960f91b6064820152608490fd5b34610217576020366003190112610217576020611890600435612ae8565b3461021757602036600319011261021757600435600081815260026020526040902054611f60906001600160a01b0316151561247e565b611f6d6115738233612f68565b80600052600d60205260ff60086040600020015416600581101561082d57151580611fba575b611f9c90612517565b6000908152600d60205260409020600801805460ff19166003179055005b5080600052600d60205260ff60086040600020015416600581101561082d5760011415611f93565b346102175760003660031901126102175760405160008054612003816123f0565b80845290600190818116908115611508575060011461202c5761082984610815818603826122ee565b600080805292507f290decd9548b62a8d60345a988386fc84ba6bc95484008f6362f93160ef3e5635b82841061206d5750505081016020016108158261149f565b80546020858701810191909152909301928101612055565b34610217576020366003190112610217576004359063ffffffff60e01b82168092036102175760209163780e9d6360e01b81149081156120c7575b5015158152f35b6380ac58cd60e01b8114915081156120f9575b81156120e8575b50836120c0565b6301ffc9a760e01b149050836120e1565b635b5e139f60e01b811491506120da565b60005b83811061211d5750506000910152565b818101518382015260200161210d565b906020916121468151809281855285808601910161210a565b601f01601f1916010190565b600435906001600160a01b038216820361021757565b602435906001600160a01b038216820361021757565b6060906003190112610217576001600160a01b0390600435828116810361021757916024359081168103610217579060443590565b9181601f84011215610217578235916001600160401b038311610217576020838186019501011161021757565b908151815261226a61224061222e61221c61220a602087015161012080602089015287019061212d565b6040870151868203604088015261212d565b6060860151858203606087015261212d565b6080850151848203608086015261212d565b61ffff60a08501511660a084015260c084015160c084015260e084015183820360e085015261212d565b916101008091015191600583101561082d57015290565b61012081019081106001600160401b0382111761119857604052565b602081019081106001600160401b0382111761119857604052565b606081019081106001600160401b0382111761119857604052565b604081019081106001600160401b0382111761119857604052565b90601f801991011681019081106001600160401b0382111761119857604052565b6001600160401b03811161119857601f01601f191660200190565b9291926123368261230f565b9161234460405193846122ee565b829481845281830111610217578281602093846000960137010152565b60001981146108ce5760010190565b6008548110156108e45760086000527ff3f7a9fe364faab93b216da50a3214154f22a0a2b415b23a84c8169e8b636ee30190600090565b80548210156108e45760005260206000200190600090565b60085490600160401b821015611198576111738260016123e29401600855612370565b565b600582101561082d5752565b90600182811c92168015612420575b602083101461240a57565b634e487b7160e01b600052602260045260246000fd5b91607f16916123ff565b90601f811161243857505050565b600091825260208220906020601f850160051c83019410612474575b601f0160051c01915b82811061246957505050565b81815560010161245d565b9092508290612454565b1561248557565b60405162461bcd60e51b8152602060048201526012602482015271109a5ad948191bd95cdb89dd08195e1a5cdd60721b6044820152606490fd5b156124c657565b60405162461bcd60e51b8152602060048201526024808201527f43616c6c6572206973206e6f742062696b65206f776e6572206f7220617070726044820152631bdd995960e21b6064820152608490fd5b1561251e57565b60405162461bcd60e51b815260206004820152600b60248201526a139bdd08185b1b1bddd95960aa1b6044820152606490fd5b9060009291805491612562836123f0565b9182825260019384811690816000146125c45750600114612584575b50505050565b90919394506000526020928360002092846000945b8386106125b057505050500101903880808061257e565b805485870183015294019385908201612599565b9294505050602093945060ff191683830152151560051b0101903880808061257e565b600581101561082d5780156126cb57600181146126a7576002811461268057600381146126555760041461263257604051612621816122d3565b60018152602f60f81b602082015290565b60405161263e816122d3565b600781526614dd19585b195960ca1b602082015290565b50604051612662816122d3565b600e81526d4f7574206f66207365727669636560901b602082015290565b5060405161268d816122d3565b600a815269496e207365727669636560b01b602082015290565b506040516126b4816122d3565b60078152664f6e2073616c6560c81b602082015290565b506040516126d8816122d3565b600481526349646c6560e01b602082015290565b600a546001600160a01b0316330361270057565b606460405162461bcd60e51b815260206004820152602060248201527f4f776e61626c653a2063616c6c6572206973206e6f7420746865206f776e65726044820152fd5b9061274e8261230f565b61275b60405191826122ee565b828152809261276c601f199161230f565b0190602036910137565b8051156128a857604051612789816122b8565b604081527f4142434445464748494a4b4c4d4e4f505152535455565758595a61626364656660208201527f6768696a6b6c6d6e6f707172737475767778797a303132333435363738392b2f604082015281516002928382018092116108ce576003918290046001600160fe1b03811681036108ce5761280b908594951b612744565b936020850193829183518401925b838110612857575050505051068060011461284457600214612839575090565b603d90600019015390565b50603d9081600019820153600119015390565b85600491979293949701918251600190603f9082828260121c16880101518453828282600c1c16880101518385015382828260061c1688010151888501531685010151878201530195929190612819565b506040516128b58161229d565b6000815290565b806000917a184f03e93ff9f4daa797ed6e38ed64bf6a1f010000000000000000808210156129f1575b506d04ee2d6d415b85acef8100000000808310156129e2575b50662386f26fc10000808310156129d3575b506305f5e100808310156129c4575b50612710808310156129b5575b5060648210156129a5575b600a8092101561299b575b600190816021612953828701612744565b95860101905b612965575b5050505090565b600019019083906f181899199a1a9b1b9c1cb0b131b232b360811b8282061a83530491821561299657919082612959565b61295e565b9160010191612942565b9190606460029104910191612937565b6004919392049101913861292c565b6008919392049101913861291f565b60109193920491019138612910565b602091939204910191386128fe565b6040935081049150386128e5565b6001600160a01b03168015612a1f57600052600360205260406000205490565b60405162461bcd60e51b815260206004820152602960248201527f4552433732313a2061646472657373207a65726f206973206e6f7420612076616044820152683634b21037bbb732b960b91b6064820152608490fd5b15612a7d57565b60405162461bcd60e51b815260206004820152601860248201527f4552433732313a20696e76616c696420746f6b656e20494400000000000000006044820152606490fd5b6000908152600260205260409020546001600160a01b0316612ae5811515612a76565b90565b600081815260026020526040902054612b0b906001600160a01b03161515612a76565b6000908152600460205260409020546001600160a01b031690565b15612b2d57565b60405162461bcd60e51b815260206004820152602d60248201527f4552433732313a2063616c6c6572206973206e6f7420746f6b656e206f776e6560448201526c1c881bdc88185c1c1c9bdd9959609a1b6064820152608490fd5b90600090838252602090600d825260409060ff60088386200154166005811015612ead5715612ec157858452600d835260ff60088386200154166005811015612ead57600203612ea657858452600d83526007828520018251612c0681612bf88782019488865287830190612551565b03601f1981018352826122ee565b5190208251848101908582528685820152848152612c23816122b8565b51902014155b15612e625790612c56939291612c3e87612ac2565b6001600160a01b038781169690929183168714613022565b818116968715612e125791869594939188938715600014612d34575095612cb791600080516020613228833981519152976008548c89526009885285892055612c9e8c6123bf565b828603612d06575b50612cb08b612ac2565b1614613022565b878452600483526002818520936001600160601b0360a01b94858154169055878652600381528286206000198154019055838652828620600181540190558986525283209182541617905580a4565b612d0f906129ff565b8588526006875284882081895287528b858920558b8852600787528488205538612ca6565b848803612d57575b5095612cb79160008051602061322883398151915297612c9e565b909294959650612d689193506129ff565b6000198101908111612dfe5786889387969593612cb7938c6000805160206132288339815191529a526007885285892054818103612dc7575b508c89528886812055838952600688528589209089528752878581205591975091612d3c565b848a5260068952868a20828b528952868a2054858b5260068a52878b20828c528a5280888c20558a5260078952868a205538612da1565b634e487b7160e01b86526011600452602486fd5b835162461bcd60e51b8152600481018690526024808201527f4552433732313a207472616e7366657220746f20746865207a65726f206164646044820152637265737360e01b6064820152608490fd5b815162461bcd60e51b815260048101849052601760248201527f43616c6c207472616e73666572466f72536572766963650000000000000000006044820152606490fd5b6001612c29565b634e487b7160e01b85526021600452602485fd5b815162461bcd60e51b815260048101849052600960248201526849646c65206d6f646560b81b6044820152606490fd5b60809060208152603260208201527f4552433732313a207472616e7366657220746f206e6f6e20455243373231526560408201527131b2b4bb32b91034b6b83632b6b2b73a32b960711b60608201520190565b15612f4b57565b60405162461bcd60e51b815280612f6460048201612ef1565b0390fd5b906001600160a01b038080612f7c84612ac2565b16931691838314938415612faf575b508315612f99575b50505090565b612fa591929350612ae8565b1614388080612f93565b909350600052600560205260406000208260005260205260ff604060002054169238612f8b565b15612fdd57565b60405162461bcd60e51b815260206004820152601c60248201527f4552433732313a20746f6b656e20616c7265616479206d696e746564000000006044820152606490fd5b1561302957565b60405162461bcd60e51b815260206004820152602560248201527f4552433732313a207472616e736665722066726f6d20696e636f72726563742060448201526437bbb732b960d91b6064820152608490fd5b9192600092909190803b15613192576130ca946040518092630a85bd0160e11b9485835233600484015287602484015260448301526080606483015281878160209a8b96608483019061212d565b03926001600160a01b03165af184918161314e575b5061313d575050503d600014613135573d6130f98161230f565b9061310760405192836122ee565b81528091833d92013e5b805191826131325760405162461bcd60e51b815280612f6460048201612ef1565b01fd5b506060613111565b6001600160e01b0319161492509050565b9091508581813d831161318b575b61316681836122ee565b8101031261318757516001600160e01b0319811681036131875790386130df565b8480fd5b503d61315c565b5050915050600190565b9293600093909291803b1561321c579484916131f69660405180948193630a85bd0160e11b9788845233600485015260018060a01b0380921660248501526044840152608060648401528260209b8c97608483019061212d565b0393165af184918161314e575061313d575050503d600014613135573d6130f98161230f565b50505091505060019056feddf252ad1be2c89b69c2b068fc378daa952ba7f163c4a11628f55a4df523b3efa26469706673582212205d35145039768e565e32175ab876872b68627a8fb5e4126a52d44d30d19f393d64736f6c63430008110033",
  "linkReferences": {},
  "deployedLinkReferences": {}
}