{
  "_format": "hh-sol-artifact-1",
  "contractName": "BikeCollectionFactory",
  "sourceName": "contracts/BikeCollectionFactory.sol",
  "abi": [
    {
      "anonymous": false,
      "inputs": [
        {
          "indexed": false,
          "internalType": "address",
          "name": "collectionAddr",
          "type": "address"
        },
        {
          "indexed": false,
          "internalType": "address",
          "name": "ownerAddr",
          "type": "address"
        },
        {
          "indexed": false,
          "internalType": "string",
          "name": "name",
          "type": "string"
        },
        {
          "indexed": false,
          "internalType": "string",
          "name": "symbol",
          "type": "string"
        }
      ],
      "name": "CollectionCreated",
      "type": "event"
    },
    {
      "anonymous": false,
      "inputs": [
        {
          "indexed": true,
          "internalType": "address",
          "name": "previousOwner",
          "type": "address"
        },
        {
          "indexed": true,
          "internalType": "address",
          "name": "newOwner",
          "type": "address"
        }
      ],
      "name": "OwnershipTransferred",
      "type": "event"
    },
    {
      "inputs": [
        {
          "internalType": "uint256",
          "name": "",
          "type": "uint256"
        }
      ],
      "name": "collectionAddresses",
      "outputs": [
        {
          "internalType": "address",
          "name": "",
          "type": "address"
        }
      ],
      "stateMutability": "view",
      "type": "function"
    },
    {
      "inputs": [
        {
          "internalType": "string",
          "name": "name",
          "type": "string"
        },
        {
          "internalType": "string",
          "name": "symbol",
          "type": "string"
        },
        {
          "internalType": "address",
          "name": "owner",
          "type": "address"
        }
      ],
      "name": "createCollection",
      "outputs": [],
      "stateMutability": "nonpayable",
      "type": "function"
    },
    {
      "inputs": [],
      "name": "getCollection",
      "outputs": [
        {
          "internalType": "contract BikeCollection",
          "name": "",
          "type": "address"
        }
      ],
      "stateMutability": "view",
      "type": "function"
    },
    {
      "inputs": [],
      "name": "isCollectionOwner",
      "outputs": [
        {
          "internalType": "bool",
          "name": "",
          "type": "bool"
        }
      ],
      "stateMutability": "view",
      "type": "function"
    },
    {
      "inputs": [],
      "name": "owner",
      "outputs": [
        {
          "internalType": "address",
          "name": "",
          "type": "address"
        }
      ],
      "stateMutability": "view",
      "type": "function"
    },
    {
      "inputs": [],
      "name": "renounceOwnership",
      "outputs": [],
      "stateMutability": "nonpayable",
      "type": "function"
    },
    {
      "inputs": [
        {
          "internalType": "address",
          "name": "newOwner",
          "type": "address"
        }
      ],
      "name": "transferOwnership",
      "outputs": [],
      "stateMutability": "nonpayable",
      "type": "function"
    }
  ],
  "bytecode": "0x6080806040523461005b5760008054336001600160a01b0319821681178355916001600160a01b03909116907f8be0079c531659141344cd1fd0a4f28419497f9722a3daafe3b4186f6b6457e09080a3613e1590816100618239f35b600080fdfe608060405260043610156200001357600080fd5b6000803560e01c80634251921e14620008cd578063715018a6146200086f5780638da5cb5b1462000846578063a45106311462000808578063abae977f14620007a9578063d0ae65db146200014c5763f2fde38b146200007257600080fd5b346200014957602036600319011262000149576004356001600160a01b03818116918290036200014457620000a662000a0f565b8115620000f057600054826bffffffffffffffffffffffff60a01b821617600055167f8be0079c531659141344cd1fd0a4f28419497f9722a3daafe3b4186f6b6457e0600080a380f35b60405162461bcd60e51b815260206004820152602660248201527f4f776e61626c653a206e6577206f776e657220697320746865207a65726f206160448201526564647265737360d01b6064820152608490fd5b600080fd5b80fd5b503462000149576060366003190112620001495760043567ffffffffffffffff8111620007a5576200018390369060040162000966565b9060243567ffffffffffffffff8111620007a557620001a790369060040162000966565b604435906001600160a01b0382168203620007a157620001c662000a0f565b6001600160a01b03828116845260016020526040842060030154166200075c576040516133778082019082821067ffffffffffffffff83111762000748578291620002349162000a69843960408152620002246040820189620009cd565b90602081830391015284620009cd565b039084f080156200073d576001600160a01b031690813b15620007395760405163f2fde38b60e01b81526001600160a01b0384166004820152848160248183875af180156200072e57620006fc575b5060025468010000000000000000811015620006e8576001810180600255811015620006d25760026000527f405787fa12a823e0f2b7631cc41b3ba8828b3321ca811111fa75cd3aa3bb5ace0180546001600160a01b03191683179055604051946080860167ffffffffffffffff811187821017620006bc57604090815283875260208088018381528883018590526001600160a01b0387811660608b0181905289526001909252918720885181546001600160a01b0319169216919091178155905180519197919067ffffffffffffffff8211620005c8576001890154600181811c91168015620006b1575b6020821014620005a9579081601f8493116200065c575b50602090601f8311600114620005e8578992620005dc575b50508160011b916000199060031b1c19161760018801555b604081015196875167ffffffffffffffff8111620005c8576002820154600181811c91168015620005bd575b6020821014620005a957601f811162000560575b506020601f8211600114620004c057620004ae959492826200049f95936003938c9d7f5fead977881b23a0dbf2f905699203f29cefea57a576d2d4f412523191258e849d92620004b4575b50508160011b9160001990851b1c19161760028201555b606090920151910180546001600160a01b0319166001600160a01b03928316179055604080519687529616602086015260809585018690529394859490850190620009cd565b908382036060850152620009cd565b0390a180f35b01519050388062000442565b6002830189526020892099895b601f1984168110620005475750926001837f5fead977881b23a0dbf2f905699203f29cefea57a576d2d4f412523191258e849b9c600394620004ae9a99976200049f9997601f198116106200052e575b505050811b01600282015562000459565b015160001983871b60f8161c191690553880806200051d565b828201518c556001909b019a60209283019201620004cd565b60028301895260208920601f830160051c810160208410620005a1575b601f830160051c8201811062000595575050620003f7565b8a81556001016200057d565b50806200057d565b634e487b7160e01b89526022600452602489fd5b90607f1690620003e3565b634e487b7160e01b88526041600452602488fd5b0151905038806200039f565b925060018a018952602089209089935b601f198416851062000640576001945083601f1981161062000626575b505050811b016001880155620003b7565b015160001960f88460031b161c1916905538808062000615565b81810151835560209485019460019093019290910190620005f8565b90915060018a01895260208920601f840160051c810160208510620006a9575b90849392915b601f830160051c820181106200069a57505062000387565b8b815585945060010162000682565b50806200067c565b90607f169062000370565b634e487b7160e01b600052604160045260246000fd5b634e487b7160e01b600052603260045260246000fd5b634e487b7160e01b85526041600452602485fd5b67ffffffffffffffff81959295116200071a57604052923862000283565b634e487b7160e01b82526041600452602482fd5b6040513d87823e3d90fd5b8380fd5b6040513d85823e3d90fd5b634e487b7160e01b86526041600452602486fd5b60405162461bcd60e51b815260206004820152601860248201527f416c726561647920686173206120636f6c6c656374696f6e00000000000000006044820152606490fd5b8280fd5b5080fd5b5034620001495760203660031901126200014957600435600254811015620007a55760029091527f405787fa12a823e0f2b7631cc41b3ba8828b3321ca811111fa75cd3aa3bb5ace01546040516001600160a01b039091168152602090f35b50346200014957806003193601126200014957336000908152600160209081526040909120600301546001600160a01b031615156040519015158152f35b50346200014957806003193601126200014957546040516001600160a01b039091168152602090f35b503462000149578060031936011262000149576200088c62000a0f565b80546001600160a01b03198116825581906001600160a01b03167f8be0079c531659141344cd1fd0a4f28419497f9722a3daafe3b4186f6b6457e08280a380f35b50346200014957806003193601126200014957336000908152600160205260409020600301546001600160a01b031615620009215760209033815260018252604060018060a01b0391205416604051908152f35b60405162461bcd60e51b815260206004820152601860248201527f43616c6c657220686173206e6f20636f6c6c656374696f6e00000000000000006044820152606490fd5b81601f82011215620001445780359067ffffffffffffffff92838311620006bc5760405193601f8401601f19908116603f0116850190811185821017620006bc57604052828452602083830101116200014457816000926020809301838601378301015290565b919082519283825260005b848110620009fa575050826000602080949584010152601f8019910116010190565b602081830181015184830182015201620009d8565b6000546001600160a01b0316330362000a2457565b606460405162461bcd60e51b815260206004820152602060248201527f4f776e61626c653a2063616c6c6572206973206e6f7420746865206f776e65726044820152fdfe608060405234620003635762003377803803806200001d8162000368565b9283398101604082820312620003635781516001600160401b0392908381116200036357826200004f9183016200038e565b906020928382015185811162000363576200006b92016200038e565b9281518181116200034d576000938454916001948584811c9416801562000342575b838510146200032e578190601f94858111620002db575b508390858311600114620002775788926200026b575b5050600019600383901b1c191690851b1785555b8551928311620002575783548481811c911680156200024c575b828210146200023857828111620001f0575b50809183116001146200018a57508394829394926200017e575b5050600019600383901b1c191690821b1790555b60078054336001600160a01b031982168117909255604051926001600160a01b03909116907f8be0079c531659141344cd1fd0a4f28419497f9722a3daafe3b4186f6b6457e09080a3612f769081620004018239f35b01519050388062000114565b90601f198316958486528286209286905b888210620001d85750508385969710620001be575b505050811b01905562000128565b015160001960f88460031b161c19169055388080620001b0565b8087859682949686015181550195019301906200019b565b8486528186208380860160051c8201928487106200022e575b0160051c019085905b82811062000222575050620000fa565b87815501859062000212565b9250819262000209565b634e487b7160e01b86526022600452602486fd5b90607f1690620000e8565b634e487b7160e01b85526041600452602485fd5b015190503880620000ba565b8880528489208894509190601f1984168a5b87828210620002c45750508411620002aa575b505050811b018555620000ce565b015160001960f88460031b161c191690553880806200029c565b8385015186558b9790950194938401930162000289565b9091508780528388208580850160051c82019286861062000324575b918991869594930160051c01915b82811062000315575050620000a4565b8a815585945089910162000305565b92508192620002f7565b634e487b7160e01b87526022600452602487fd5b93607f16936200008d565b634e487b7160e01b600052604160045260246000fd5b600080fd5b6040519190601f01601f191682016001600160401b038111838210176200034d57604052565b919080601f84011215620003635782516001600160401b0381116200034d57602090620003c4601f8201601f1916830162000368565b92818452828287010111620003635760005b818110620003ec57508260009394955001015290565b8581018301518482018401528201620003d656fe608080604052600436101561001357600080fd5b60003560e01c90816301ffc9a714611fca5750806304fc586d1461111157806305b51b9a14610e7f57806306fdde0314610ddc57806307c6336e14610d23578063081812fc14610d05578063095ea7b314610b8b57806323b872dd14610b6757806324e7793814610aae57806342842e0e14610a7b5780636352211e14610a4b57806363e4ab331461088857806370a08231146107f1578063715018a6146107945780638da5cb5b1461076b578063930318891461073f57806394b3bcc91461066b57806395d89b411461058c578063a22cb465146104ba578063a2cdf7831461049c578063aafbbe031461035f578063b88d4fde146102d8578063c87b56dd14610251578063e985e9c5146101fb5763f2fde38b1461013257600080fd5b346101f65760203660031901126101f65761014b612062565b6101536125a5565b6001600160a01b039081169081156101a257600754826001600160601b0360a01b821617600755167f8be0079c531659141344cd1fd0a4f28419497f9722a3daafe3b4186f6b6457e0600080a3005b60405162461bcd60e51b815260206004820152602660248201527f4f776e61626c653a206e6577206f776e657220697320746865207a65726f206160448201526564647265737360d01b6064820152608490fd5b600080fd5b346101f65760403660031901126101f657610214612062565b61021c612078565b9060018060a01b03809116600052600560205260406000209116600052602052602060ff604060002054166040519015158152f35b346101f65760203660031901126101f657600435600081815260026020526040902054610288906001600160a01b031615156128b8565b60005260066020526102d46102aa6102b160406000206040519283809261240a565b0382612203565b60006040516102bf816121b2565b526040519182916020835260208301906120b1565b0390f35b346101f65760803660031901126101f6576102f1612062565b6102f9612078565b90606435906044356001600160401b0383116101f657366023840112156101f65761035d9361033561035894369060248160040135910161223f565b926103486103438433612c81565b612968565b6103538383836129ca565b612eb5565b612c5d565b005b346101f6576020806003193601126101f6576040519060043561038183612196565b60008352600060e0606094858582015285604082015285808201528260808201528260a08201528560c082015201526103d76103d282600052600260205260018060a01b0360406000205416151590565b612337565b600052600a815261048860ff60076040600020604051956103f787612196565b8154875260405161040f816102aa816001870161240a565b86880152604051610427816102aa816002870161240a565b60408801526040519061044882610441816003870161240a565b0383612203565b87015261ffff6004820154166080870152600581015460a0870152604051610477816102aa816006860161240a565b60c087015201541660e0840161229d565b6102d460405192828493845283019061210b565b346101f65760003660031901126101f6576020600954604051908152f35b346101f65760403660031901126101f6576104d3612062565b602435908115158092036101f6576001600160a01b03169033821461054757336000526005602052604060002082600052602052604060002060ff1981541660ff83161790556040519081527f17307eab39ab6107e8899845ad3d59bd9653f200f220920489ca2b5937696c3160203392a3005b60405162461bcd60e51b815260206004820152601960248201527f4552433732313a20617070726f766520746f2063616c6c6572000000000000006044820152606490fd5b346101f65760003660031901126101f657604051600060018054906105b0826122a9565b8085529181811690811561064457506001146105eb575b6102d4846105d781860382612203565b6040519182916020835260208301906120b1565b600081815292507fb10e2d527612073b26eecdfd717e6a320cf44b4afac2b0732d9fcbe2b7fa0cf65b82841061062c5750505081016020016105d7826105c7565b80546020858701810191909152909301928101610614565b60ff191660208087019190915292151560051b850190920192506105d791508390506105c7565b346101f65760203660031901126101f6576004356000818152600260205260409020546106a2906001600160a01b03161515612337565b6106b46106af8233612c81565b612378565b80600052600a60205260ff60076040600020015416600581101561072957151580610701575b6106e3906123d0565b6000908152600a60205260409020600701805460ff19166002179055005b5080600052600a60205260ff60076040600020015416600581101561072957600114156106da565b634e487b7160e01b600052602160045260246000fd5b346101f65760203660031901126101f657600435600052600b6020526020604060002054604051908152f35b346101f65760003660031901126101f6576007546040516001600160a01b039091168152602090f35b346101f65760003660031901126101f6576107ad6125a5565b600780546001600160a01b031981169091556000906001600160a01b03167f8be0079c531659141344cd1fd0a4f28419497f9722a3daafe3b4186f6b6457e08280a3005b346101f65760203660031901126101f6576001600160a01b03610812612062565b1680156108315760005260036020526020604060002054604051908152f35b60405162461bcd60e51b815260206004820152602960248201527f4552433732313a2061646472657373207a65726f206973206e6f7420612076616044820152683634b21037bbb732b960b91b6064820152608490fd5b346101f65760803660031901126101f6576108a1612062565b6108a9612078565b906044359060643561ffff81168091036101f6576108c56125a5565b82600052600b936020928584526040600020548311610a125760005b838110610925577f65659fbf3bab178ce96dcb4ea95ba3900cae36f9426e9920b7940995f62b06bf604087878a8260005281528260002054908351928352820152a1005b60008681528786526040902080546000199291908381019081116109fc5761094c91612285565b929054600393841b1c928860005289885260406000209384549182156109e6576109e195846109dc956103589501926109858484612285565b81939154921b1b191690555580600052600a89526007604060002001600160ff19825416179055604051906109b9826121b2565b600082526109ca6103438233612c81565b6109d58189896129ca565b8787612eb5565b612276565b6108e1565b634e487b7160e01b600052603160045260246000fd5b634e487b7160e01b600052601160045260246000fd5b60405162461bcd60e51b815260048101859052601160248201527020b6b7bab73a103a37b7903434b3b432b960791b6044820152606490fd5b346101f65760203660031901126101f6576020610a69600435612904565b6040516001600160a01b039091168152f35b346101f65761035d610358610a8f366120d6565b9060405192610a9d846121b2565b600084526103486103438433612c81565b346101f65760203660031901126101f657600435600081815260026020526040902054610ae5906001600160a01b03161515612337565b610af26106af8233612c81565b80600052600a60205260ff60076040600020015416600581101561072957151580610b3f575b610b21906123d0565b6000908152600a60205260409020600701805460ff19166004179055005b5080600052600a60205260ff6007604060002001541660058110156107295760011415610b18565b346101f65761035d610b78366120d6565b91610b866103438433612c81565b6129ca565b346101f65760403660031901126101f657610ba4612062565b602435906001600160a01b038080610bbb85612904565b16921691808314610cb657803314908115610c91575b5015610c2657600083815260046020526040902080546001600160a01b03191683179055610bfe83612904565b167f8c5be1e5ebec7d5bd14f71427d1e84f3dd0314c0f7b2291e5b200ac8c7c3b925600080a4005b60405162461bcd60e51b815260206004820152603d60248201527f4552433732313a20617070726f76652063616c6c6572206973206e6f7420746f60448201527f6b656e206f776e6572206f7220617070726f76656420666f7220616c6c0000006064820152608490fd5b9050600052600560205260406000203360005260205260ff6040600020541684610bd1565b60405162461bcd60e51b815260206004820152602160248201527f4552433732313a20617070726f76616c20746f2063757272656e74206f776e656044820152603960f91b6064820152608490fd5b346101f65760203660031901126101f6576020610a6960043561292a565b346101f65760203660031901126101f657600435600081815260026020526040902054610d5a906001600160a01b03161515612337565b610d676106af8233612c81565b80600052600a60205260ff60076040600020015416600581101561072957151580610db4575b610d96906123d0565b6000908152600a60205260409020600701805460ff19166003179055005b5080600052600a60205260ff6007604060002001541660058110156107295760011415610d8d565b346101f65760003660031901126101f65760405160008054610dfd816122a9565b808452906001908181169081156106445750600114610e26576102d4846105d781860382612203565b600080805292507f290decd9548b62a8d60345a988386fc84ba6bc95484008f6362f93160ef3e5635b828410610e675750505081016020016105d7826105c7565b80546020858701810191909152909301928101610e4f565b346101f65760803660031901126101f657610e98612062565b610ea0612078565b90604435606435926001600160401b03938481116101f657610ec6903690600401612035565b600084815260026020526040902054919591610eec906001600160a01b03161515612337565b610ef96106af8533612c81565b83600052602095600a875260ff600760406000200154169060058210156107295760018092036110de576040519088820189815284604084015284826060850137600060608685010152601f1992610f6360608286601f8a01168101036040810184520182612203565b5190206040518a8101908b82526000604082015260408152610f84816121cd565b519020146110ae576000878152600a8a526040902042600582015560060194841161109857610fbd84610fb787546122a9565b876122e3565b600091601f8511600114611029575092808061035d9a946103589a99989794600a9760009461101e575b50501b916000199060031b1c19161790555b83600052526007604060002001600260ff1982541617905560405192610a9d846121b2565b013592508c80610fe7565b849394169185600052896000209260005b818110611083575092600a9592859261035d9c966103589c9b9a999610611069575b505050811b019055610ff9565b0135600019600384901b60f8161c191690558a808061105c565b83830135855593860193918b01918b0161103a565b634e487b7160e01b600052604160045260246000fd5b60405162461bcd60e51b8152600481018a90526008602482015267534e20656d70747960c01b6044820152606490fd5b60405162461bcd60e51b815260048101899052600b60248201526a4e6f74206f6e2073616c6560a81b6044820152606490fd5b346101f65760a03660031901126101f65760043561ffff811681036101f6576024356001600160401b0381116101f65761114f903690600401612035565b91906044356001600160401b0381116101f657611170903690600401612035565b906064356001600160401b0381116101f657611190903690600401612035565b90916084359361ffff851685036101f6576111a96125a5565b600160095401958660095560005b61ffff8916811061127f57509361ffff9361121e61127a979461122a946112127fdbcdf46aa5dbcab82cf5e3c0ae56ffe42c6ed3f7d44d852a796b15ac5040793b9d996040519a6112078c612196565b60008c52369161223f565b60208a0152369161223f565b6040870152369161223f565b6060840152166080820152600060a0820152604051611248816121b2565b6000815260c0820152600060e082015261ffff604051948594855216602084015260606040840152606083019061210b565b0390a1005b6112876125a5565b600890600182540180925560405161129e816121b2565b600081523315611f875760008381526002602052604090205461135c91610358916112d5906001600160a01b031615155b15612cef565b6000858152600260205260409020546112f8906001600160a01b031615156112cf565b3360005260036020526040600020600181540190558460005260026020526040600020336001600160601b0360a01b825416179055843360007fddf252ad1be2c89b69c2b068fc378daa952ba7f163c4a11628f55a4df523b3ef8180a48433612d95565b60405161136881612196565b828152611376368d8661223f565b602082015261138636868861223f565b604082015261139636888a61223f565b606082015261ffff89166080820152600060a08201526040516113b8816121b2565b6000815260c0820152600060e082015282600052600a6020526040600020908051825560208101518051906001600160401b03821161109857819061140d8261140460018801546122a9565b600188016122e3565b602090601f8311600114611f1557600092611f0a575b50508160011b916000199060031b1c19161760018301555b60408101518051906001600160401b03821161109857819061146d8261146460028801546122a9565b600288016122e3565b602090601f8311600114611e9857600092611e8d575b50508160011b916000199060031b1c19161760028301555b60608101518051906001600160401b0382116110985781906114cd826114c460038801546122a9565b600388016122e3565b602090601f8311600114611e1b57600092611e10575b50508160011b916000199060031b1c19161760038301555b6004820161ffff60808301511661ffff1982541617905560a0810151600583015560c08101518051906001600160401b0382116110985761154c8261154360068701546122a9565b600687016122e3565b602090601f8311600114611d9d5760e093929160009183611d92575b50508160011b916000199060031b1c19161760068401555b015160058110156107295760079060ff801983850154169116179101556115bf6103d283600052600260205260018060a01b0360406000205416151590565b81600052600a602052604060002061166d60ff6007604051936115e185612196565b805485526040516115f9816102aa816001860161240a565b6020860152604051611612816102aa816002860161240a565b604086015260405161162b816102aa816003860161240a565b606086015261ffff6004820154166080860152600581015460a086015260405161165c816102aa816006860161240a565b60c086015201541660e0830161229d565b602081015161167b84612775565b9160408101519060608101519060e081015160058110156107295760ff6116a29116612775565b60405190306116b0836121cd565b602a83526040366020850137825115611d7c5760306020840153825160011015611d7c576078602184015360295b60018111611d335750611cef576116f489612775565b9161170661ffff608086015116612775565b9161171460a0860151612775565b9560e060c0870151960151600581101561072957611731906124a0565b976040519a8b809b60208201607b60f81b905268113730b6b2911d101160b91b60218301528051602a819301916020019161176b9261208e565b8b0190602a820161202360f01b905280519081602c840191602001916117909261208e565b61088b60f21b818301602c8101919091526f113232b9b1b934b83a34b7b7111d101160811b602e8201528351603e949093916117d391859187019060200161208e565b01019061088b60f21b90820152691134b6b0b3b2911d101160b11b6040820152815190604a9282848301916020019161180b9261208e565b61088b60f21b9101918201526901139ba30ba3ab9911d160b51b604c82015281516056929091906118449083908584019060200161208e565b01908101600b60fa1b9052605781017f2265787465726e616c5f6c696e6b223a2022687474703a2f2f62696b652d6f6e905260778101712d636861696e2e76657263656c2e6170702f60701b90528151906089928284830191602001916118aa9261208e565b01908101602f60f81b9052825190608a938285830191602001916118cd9261208e565b61088b60f21b9101928301526e2261747472696275746573223a205b60881b608c830152607b60f81b609b8301527f2274726169745f74797065223a20224275696c642079656172222c0000000000609c83015269113b30b63ab2911d101160b11b60b783018190528151909260c19261194f9083908584019060200161208e565b601160f91b9101918201819052611f4b60f21b60c28301819052607b60f81b60c48401527f2274726169745f74797065223a2022466972737420707572636861736520646160c5840152631d19488b60e21b60e58401527f22646973706c61795f74797065223a202264617465222c00000000000000000060e9840152680113b30b63ab2911d160bd1b610100840152855191959092869261010992859290611a009083908684019060200161208e565b019182015261010b8101607b60f81b905261010c81017f2274726169745f74797065223a202253657269616c206e756d626572222c000090528361012a82015284519061013495828783019160200191611a599261208e565b0193840152610135830152607b60f81b61013783015272089cdd185d1d5cc88e880894dd185d1d5cc88b606a1b61013883015261014b820152825161015593909190611aad9083908684019060200161208e565b0191820152607d60f81b806101568301526101578201605d60f81b9052610158820152036101398101825261015901611ae69082612203565b611aef9061262f565b60405190602082017f646174613a6170706c69636174696f6e2f6a736f6e3b6261736536342c0000009052818151603d92818484019160200191611b329261208e565b810103601d8101835201611b469082612203565b6000838152600260205260409020546001600160a01b031615611c93578260005260066020526040600020908051906001600160401b038211611098578190611b9982611b9386546122a9565b866122e3565b602090601f8311600114611c2757600092611c1c575b50508160011b916000199060031b1c19161790555b88600052600b602052604060002091825492680100000000000000008410156110985783611bfa916001611c1796018155612285565b819291549060031b600019811b9283911b16911916179055612276565b6111b7565b015190508e80611baf565b9250836000526020600020906000935b601f1984168510611c78576001945083601f19811610611c5f575b505050811b019055611bc4565b015160001960f88460031b161c191690558e8080611c52565b81810151835560209485019460019093019290910190611c37565b60405162461bcd60e51b815260206004820152602e60248201527f45524337323155524953746f726167653a2055524920736574206f66206e6f6e60448201526d32bc34b9ba32b73a103a37b5b2b760911b6064820152608490fd5b606460405162461bcd60e51b815260206004820152602060248201527f537472696e67733a20686578206c656e67746820696e73756666696369656e746044820152fd5b906010600f82161015611d7c578351821015611d7c576f181899199a1a9b1b9c1cb0b131b232b360811b600f82161a8483016020015360041c9080156109fc57600019016116de565b634e487b7160e01b600052603260045260246000fd5b015190503880611568565b906006850160005260206000209160005b601f1985168110611df8575091839160019360e09695601f19811610611ddf575b505050811b016006840155611580565b015160001960f88460031b161c19169055388080611dcf565b91926020600181928685015181550194019201611dae565b015190508f806114e3565b9250600385016000526020600020906000935b601f1984168510611e72576001945083601f19811610611e59575b505050811b0160038301556114fb565b015160001960f88460031b161c191690558f8080611e49565b81810151835560209485019460019093019290910190611e2e565b015190508f80611483565b9250600285016000526020600020906000935b601f1984168510611eef576001945083601f19811610611ed6575b505050811b01600283015561149b565b015160001960f88460031b161c191690558f8080611ec6565b81810151835560209485019460019093019290910190611eab565b015190508f80611423565b9250600185016000526020600020906000935b601f1984168510611f6c576001945083601f19811610611f53575b505050811b01600183015561143b565b015160001960f88460031b161c191690558f8080611f43565b81810151835560209485019460019093019290910190611f28565b606460405162461bcd60e51b8152602080600483015260248201527f4552433732313a206d696e7420746f20746865207a65726f20616464726573736044820152fd5b346101f65760203660031901126101f6576004359063ffffffff60e01b82168092036101f6576020916380ac58cd60e01b8114908115612024575b8115612013575b5015158152f35b6301ffc9a760e01b1490508361200c565b635b5e139f60e01b81149150612005565b9181601f840112156101f6578235916001600160401b0383116101f657602083818601950101116101f657565b600435906001600160a01b03821682036101f657565b602435906001600160a01b03821682036101f657565b60005b8381106120a15750506000910152565b8181015183820152602001612091565b906020916120ca8151809281855285808601910161208e565b601f01601f1916010190565b60609060031901126101f6576001600160a01b039060043582811681036101f6579160243590811681036101f6579060443590565b908151815260e061218261215861214661213460208701516101008060208901528701906120b1565b604087015186820360408801526120b1565b606086015185820360608701526120b1565b61ffff608086015116608085015260a085015160a085015260c085015184820360c08601526120b1565b9201519060058210156107295760e0015290565b61010081019081106001600160401b0382111761109857604052565b602081019081106001600160401b0382111761109857604052565b606081019081106001600160401b0382111761109857604052565b604081019081106001600160401b0382111761109857604052565b90601f801991011681019081106001600160401b0382111761109857604052565b6001600160401b03811161109857601f01601f191660200190565b92919261224b82612224565b916122596040519384612203565b8294818452818301116101f6578281602093846000960137010152565b60001981146109fc5760010190565b8054821015611d7c5760005260206000200190600090565b60058210156107295752565b90600182811c921680156122d9575b60208310146122c357565b634e487b7160e01b600052602260045260246000fd5b91607f16916122b8565b90601f81116122f157505050565b600091825260208220906020601f850160051c8301941061232d575b601f0160051c01915b82811061232257505050565b818155600101612316565b909250829061230d565b1561233e57565b60405162461bcd60e51b8152602060048201526012602482015271109a5ad948191bd95cdb89dd08195e1a5cdd60721b6044820152606490fd5b1561237f57565b60405162461bcd60e51b8152602060048201526024808201527f43616c6c6572206973206e6f742062696b65206f776e6572206f7220617070726044820152631bdd995960e21b6064820152608490fd5b156123d757565b60405162461bcd60e51b815260206004820152600b60248201526a139bdd08185b1b1bddd95960aa1b6044820152606490fd5b906000929180549161241b836122a9565b91828252600193848116908160001461247d575060011461243d575b50505050565b90919394506000526020928360002092846000945b838610612469575050505001019038808080612437565b805485870183015294019385908201612452565b9294505050602093945060ff191683830152151560051b01019038808080612437565b600581101561072957801561258457600181146125605760028114612539576003811461250e576004146124eb576040516124da816121e8565b60018152602f60f81b602082015290565b6040516124f7816121e8565b600781526614dd19585b195960ca1b602082015290565b5060405161251b816121e8565b600e81526d4f7574206f66207365727669636560901b602082015290565b50604051612546816121e8565b600a815269496e207365727669636560b01b602082015290565b5060405161256d816121e8565b60078152664f6e2073616c6560c81b602082015290565b50604051612591816121e8565b600481526349646c6560e01b602082015290565b6007546001600160a01b031633036125b957565b606460405162461bcd60e51b815260206004820152602060248201527f4f776e61626c653a2063616c6c6572206973206e6f7420746865206f776e65726044820152fd5b9061260782612224565b6126146040519182612203565b8281528092612625601f1991612224565b0190602036910137565b80511561276157604051612642816121cd565b604081527f4142434445464748494a4b4c4d4e4f505152535455565758595a61626364656660208201527f6768696a6b6c6d6e6f707172737475767778797a303132333435363738392b2f604082015281516002928382018092116109fc576003918290046001600160fe1b03811681036109fc576126c4908594951b6125fd565b936020850193829183518401925b83811061271057505050505106806001146126fd576002146126f2575090565b603d90600019015390565b50603d9081600019820153600119015390565b85600491979293949701918251600190603f9082828260121c16880101518453828282600c1c16880101518385015382828260061c16880101518885015316850101518782015301959291906126d2565b5060405161276e816121b2565b6000815290565b806000917a184f03e93ff9f4daa797ed6e38ed64bf6a1f010000000000000000808210156128aa575b506d04ee2d6d415b85acef81000000008083101561289b575b50662386f26fc100008083101561288c575b506305f5e1008083101561287d575b506127108083101561286e575b50606482101561285e575b600a80921015612854575b60019081602161280c8287016125fd565b95860101905b61281e575b5050505090565b600019019083906f181899199a1a9b1b9c1cb0b131b232b360811b8282061a83530491821561284f57919082612812565b612817565b91600101916127fb565b91906064600291049101916127f0565b600491939204910191386127e5565b600891939204910191386127d8565b601091939204910191386127c9565b602091939204910191386127b7565b60409350810491503861279e565b156128bf57565b60405162461bcd60e51b815260206004820152601860248201527f4552433732313a20696e76616c696420746f6b656e20494400000000000000006044820152606490fd5b6000908152600260205260409020546001600160a01b03166129278115156128b8565b90565b60008181526002602052604090205461294d906001600160a01b031615156128b8565b6000908152600460205260409020546001600160a01b031690565b1561296f57565b60405162461bcd60e51b815260206004820152602d60248201527f4552433732313a2063616c6c6572206973206e6f7420746f6b656e206f776e6560448201526c1c881bdc88185c1c1c9bdd9959609a1b6064820152608490fd5b92919060008281526020600a815260409560ff60078885200154166005811015612bc65715612bda57848352600a825260ff60078885200154166005811015612bc657600203612bbf57848352600a82526006878420018751612a4881612a3a868201948786528c83019061240a565b03601f198101835282612203565b519020875183810190848252858a820152898152612a65816121cd565b51902014155b15612b7b5795849596612a80612a9a96612904565b6001600160a01b0396918716958792909183168714612d3b565b16948515612b2b577fddf252ad1be2c89b69c2b068fc378daa952ba7f163c4a11628f55a4df523b3ef939291612adc868893612ad58b612904565b1614612d3b565b878452600483526002818520936001600160601b0360a01b94858154169055878652600381528286206000198154019055838652828620600181540190558986525283209182541617905580a4565b815162461bcd60e51b8152600481018490526024808201527f4552433732313a207472616e7366657220746f20746865207a65726f206164646044820152637265737360e01b6064820152608490fd5b865162461bcd60e51b815260048101839052601760248201527f43616c6c207472616e73666572466f72536572766963650000000000000000006044820152606490fd5b6001612a6b565b634e487b7160e01b84526021600452602484fd5b865162461bcd60e51b815260048101839052600960248201526849646c65206d6f646560b81b6044820152606490fd5b60809060208152603260208201527f4552433732313a207472616e7366657220746f206e6f6e20455243373231526560408201527131b2b4bb32b91034b6b83632b6b2b73a32b960711b60608201520190565b15612c6457565b60405162461bcd60e51b815280612c7d60048201612c0a565b0390fd5b906001600160a01b038080612c9584612904565b16931691838314938415612cc8575b508315612cb2575b50505090565b612cbe9192935061292a565b1614388080612cac565b909350600052600560205260406000208260005260205260ff604060002054169238612ca4565b15612cf657565b60405162461bcd60e51b815260206004820152601c60248201527f4552433732313a20746f6b656e20616c7265616479206d696e746564000000006044820152606490fd5b15612d4257565b60405162461bcd60e51b815260206004820152602560248201527f4552433732313a207472616e736665722066726f6d20696e636f72726563742060448201526437bbb732b960d91b6064820152608490fd5b9192600092909190803b15612eab57612de3946040518092630a85bd0160e11b9485835233600484015287602484015260448301526080606483015281878160209a8b9660848301906120b1565b03926001600160a01b03165af1849181612e67575b50612e56575050503d600014612e4e573d612e1281612224565b90612e206040519283612203565b81528091833d92013e5b80519182612e4b5760405162461bcd60e51b815280612c7d60048201612c0a565b01fd5b506060612e2a565b6001600160e01b0319161492509050565b9091508581813d8311612ea4575b612e7f8183612203565b81010312612ea057516001600160e01b031981168103612ea0579038612df8565b8480fd5b503d612e75565b5050915050600190565b9293600093909291803b15612f3557948491612f0f9660405180948193630a85bd0160e11b9788845233600485015260018060a01b0380921660248501526044840152608060648401528260209b8c9760848301906120b1565b0393165af1849181612e675750612e56575050503d600014612e4e573d612e1281612224565b50505091505060019056fea2646970667358221220941265929cdb9385694fbec615e0942144808b117f6ab4b2e798bb40353893d964736f6c63430008110033a264697066735822122037a0d81094a237210a983b9151b81d7cdfff65b23fbcc00f36272d3254028d4664736f6c63430008110033",
  "linkReferences": {},
  "deployedLinkReferences": {}
}